:060000000A128A11F42F20
:10000E007008710403193428F501F50AF11B1B2839
:10001E0001300310F00DF10DFF3E031D10280130CD
:10002E00F4007408F5070D2871087302031D2128CA
:10003E0070087202031C29287008F2027108031C52
:10004E00F303F30201300310F10CF00CFF3E031D1D
:10005E002A280130F502031D1B287308F1007208CF
:10006E00F00008000310A30DA40DA20B3928A3095C
:10007E00A40908307B07A5007C080318013EA600E2
:10008E00250884008317261C83130008A700840A02
:10009E000008A800270884008317281C8313230850
:1000AE008005840A2408800518307B07A0007C0890
:1000BE000318013EA100200884008317211C83131E
:1000CE00000AA2000130A3000030A4007128031022
:1000DE00A30DA40DA20B6E280A307B07A5007C0889
:1000EE000318013EA600250884008317261C8313DF
:1000FE000008A700840A0008A800270884008317B8
:10010E00281C831323088004840A240880041A30D0
:10011E007B07A0007C080318013EA1002008840084
:10012E008317211C8313000AA2000130A3000030A4
:10013E00A400A4280310A30DA40DA20BA1280C301B
:10014E007B07A5007C080318013EA6002508840045
:10015E008317261C83130008A700840A0008A80032
:10016E00270884008317281C831323088004840A1D
:10017E002408800408000E307B0783120313A000AE
:10018E007C080318013EA100200884008317211C5F
:10019E008313000AA2000130A3000030A400DA2865
:1001AE000310A30DA40DA20BD7287B088400831780
:1001BE007C1C83130008A500840A0008A6002508ED
:1001CE0084008317261C831323088004840A2408C2
:1001DE00800410307B07A0007C080318013EA100AC
:1001EE00200884008317211C8313000AA20001300B
:1001FE00A3000030A40006290310A30DA40DA20B2A
:10020E000329A309A40902307B07A5007C08031863
:10021E00013EA600250884008317261C83130008C0
:10022E00A700840A0008A800270884008317281C4A
:10023E00831323088005840A2408800512307B0767
:10024E00A0007C080318013EA1002008840083173B
:10025E00211C8313000AA2000130A3000030A40069
:10026E003B290310A30DA40DA20B382904307B07E4
:10027E00A5007C080318013EA600250884008317FC
:10028E00261C83130008A700840A0008A80027086C
:10029E0084008317281C831323088004840A2408EF
:1002AE00800414307B07A0007C080318013EA100D7
:1002BE00200884008317211C8313000AA20001303A
:1002CE00A3000030A4006E290310A30DA40DA20BF1
:1002DE006B2906307B07A5007C080318013EA6009B
:1002EE00250884008317261C83130008A700840AA0
:1002FE000008A800270884008317281C83132308EE
:10030E008004840A2408800416307B07A0007C0831
:10031E000318013EA100200884008317211C8313BB
:10032E00000AA2000130A3000030A400A12903108E
:10033E00A30DA40DA20B9E2908307B07A5007C08F7
:10034E000318013EA600250884008317261C83137C
:10035E000008A700840A0008A80027088400831755
:10036E00281C831323088004840A24088004183070
:10037E007B07A0007C080318013EA1002008840022
:10038E008317211C8313000AA2000130A300003042
:10039E00A400D4290310A30DA40DA20BD1290A3059
:1003AE007B07A5007C080318013EA60025088400E3
:1003BE008317261C83130008A700840A0008A800D0
:1003CE00270884008317281C831323088004840ABB
:1003DE00240880041A307B07A0007C080318013E15
:1003EE00A100200884008317211C8313000AA20099
:0203FE000130CC
:10040000A3000030A400072A0310A30DA40DA20B23
:10041000042A0C307B07A5007C080318013EA600C7
:10042000250884008317261C83130008A700840A6C
:100430000008A800270884008317281C83132308BA
:100440008004840A2408800408000E307B0783128D
:100450000313A0007C080318013EA10020088400BB
:100460008317211C8313000AA2000130A30000306F
:10047000A4003D2A0310A30DA40DA20B3A2A7B0869
:10048000840083177C1C83130008A500840A0008DD
:10049000A600250884008317261C831323088004E4
:1004A000840A2408800410307B07A0007C0803180D
:1004B000013EA100200884008317211C8313000A39
:1004C000A2000130A3000030A400692A0310A30D8C
:1004D000A40DA20B662A02307B07A5007C08031836
:1004E000013EA600250884008317261C83130008FC
:1004F000A700840A0008A800270884008317281C86
:10050000831323088004840A2408800412307B07A4
:10051000A0007C080318013EA10020088400831776
:10052000211C8313000AA2000130A3000030A400A4
:100530009C2A0310A30DA40DA20B992A04307B075B
:10054000A5007C080318013EA60025088400831737
:10055000261C83130008A700840A0008A8002708A7
:1005600084008317281C831323088004840A24082A
:10057000800414307B07A0007C080318013EA10012
:10058000200884008317211C8313000AA200013075
:10059000A3000030A400CF2A0310A30DA40DA20BCA
:1005A000CC2AA309A40906307B07A5007C08031800
:1005B000013EA600250884008317261C831300082B
:1005C000A700840A0008A800270884008317281CB5
:1005D000831323088005840A2408800516307B07CE
:1005E000A0007C080318013EA100200884008317A6
:1005F000211C8313000AA2000130A3000030A400D4
:10060000042B0310A30DA40DA20B012BA309A40915
:1006100008307B07A5007C080318013EA6002508CA
:1006200084008317261C83130008A700840A00088F
:10063000A800270884008317281C8313230880053B
:10064000840A2408800518307B07A0007C08031862
:10065000013EA100200884008317211C8313000A97
:10066000A2000130A3000030A400392B0310A30D19
:10067000A40DA20B362BA309A4090A307B07A50001
:100680007C080318013EA600250884008317261C59
:1006900083130008A700840A0008A8002708840024
:1006A0008317281C831323088005840A24088005E7
:1006B0001A307B07A0007C080318013EA100200827
:1006C00084008317211C8313000AA2000130A300B9
:1006D0000030A4006E2B0310A30DA40DA20B6B2BF6
:1006E000A309A4090C307B07A5007C080318013E70
:1006F000A600250884008317261C83130008A70082
:10070000840A0008A800270884008317281C831384
:1007100023088005840A2408800508000E307B0722
:1007200083120313A0007C080318013EA1002008D7
:1007300084008317211C8313000AA2000130A30048
:100740000030A400A62B0310A30DA40DA20BA32B15
:100750007B08840083177C1C83130008A500840A8F
:100760000008A600250884008317261C831323088D
:100770008004840A2408800410307B07A0007C08D1
:100780000318013EA100200884008317211C831355
:10079000000AA2000130A3000030A400D22B0310F5
:1007A000A30DA40DA20BCF2B02307B07A5007C0864
:1007B0000318013EA600250884008317261C831316
:1007C0000008A700840A0008A800270884008317EF
:1007D000281C831323088004840A24088004123010
:1007E0007B07A0007C080318013EA10020088400BC
:1007F0008317211C8313000AA2000130A3000030DC
:10080000A400052C0310A30DA40DA20B022C043090
:100810007B07A5007C080318013EA600250884007C
:100820008317261C83130008A700840A0008A80069
:10083000270884008317281C831323088004840A54
:100840002408800414307B07A0007C080318013EB4
:10085000A100200884008317211C8313000AA20032
:100860000130A3000030A400382C0310A30DA40D08
:10087000A20B352C06307B07A5007C080318013E2F
:10088000A600250884008317261C83130008A700F0
:10089000840A0008A800270884008317281C8313F3
:1008A00023088004840A2408800416307B07A000F3
:1008B0007C080318013EA100200884008317211C36
:1008C0008313000AA2000130A3000030A4006B2CA7
:1008D0000310A30DA40DA20B682C08307B07A50004
:1008E0007C080318013EA600250884008317261CF7
:1008F00083130008A700840A0008A80027088400C2
:100900008317281C831323088004840A2408800486
:1009100018307B07A0007C080318013EA1002008C6
:1009200084008317211C8313000AA2000130A30056
:100930000030A4009E2C0310A30DA40DA20B9B2C31
:100940000A307B07A5007C080318013EA600250895
:1009500084008317261C83130008A700840A00085C
:10096000A800270884008317281C83132308800409
:10097000840A240880041A307B07A0007C0803182E
:10098000013EA100200884008317211C8313000A64
:10099000A2000130A3000030A400D12C0310A30D4D
:1009A000A40DA20BCE2C0C307B07A5007C080318ED
:1009B000013EA600250884008317261C8313000827
:1009C000A700840A0008A800270884008317281CB1
:1009D000831323088004840A2408800408000E304E
:1009E0007B0783120313A0007C080318013EA100BB
:1009F000200884008317211C8313000AA200013001
:100A0000A3000030A400072D0310A30DA40DA20B1A
:100A1000042D7B08840083177C1C83130008A50029
:100A2000840A0008A600250884008317261C831367
:100A300023088004840A2408800410307B07A00067
:100A40007C080318013EA100200884008317211CA4
:100A50008313000AA2000130A3000030A400332D4C
:100A60000310A30DA40DA20B302D02307B07A500AF
:100A70007C080318013EA600250884008317261C65
:100A800083130008A700840A0008A8002708840030
:100A90008317281C831323088004840A24088004F5
:100AA00012307B07A0007C080318013EA10020083B
:100AB00084008317211C8313000AA2000130A300C5
:100AC0000030A400662D0310A30DA40DA20B632D0E
:100AD00004307B07A5007C080318013EA60025080A
:100AE00084008317261C83130008A700840A0008CB
:100AF000A800270884008317281C83132308800478
:100B0000840A2408800414307B07A0007C080318A2
:100B1000013EA100200884008317211C8313000AD2
:100B2000A2000130A3000030A400992D0310A30DF2
:100B3000A40DA20B962D06307B07A5007C08031898
:100B4000013EA600250884008317261C8313000895
:100B5000A700840A0008A800270884008317281C1F
:100B6000831323088004840A2408800416307B073A
:100B7000A0007C080318013EA10020088400831710
:100B8000211C8313000AA2000130A3000030A4003E
:100B9000CC2D0310A30DA40DA20BC92DA309A409EC
:100BA00008307B07A5007C080318013EA600250835
:100BB00084008317261C83130008A700840A0008FA
:100BC000A800270884008317281C831323088005A6
:100BD000840A2408800518307B07A0007C080318CD
:100BE000013EA100200884008317211C8313000A02
:100BF000A2000130A3000030A400012E0310A30DB9
:100C0000A40DA20BFE2D0A307B07A5007C0803185B
:100C1000013EA600250884008317261C83130008C4
:100C2000A700840A0008A800270884008317281C4E
:100C3000831323088004840A240880041A307B0765
:100C4000A0007C080318013EA1002008840083173F
:100C5000211C8313000AA2000130A3000030A4006D
:100C6000342E0310A30DA40DA20B312E0C307B07E4
:100C7000A5007C080318013EA60025088400831700
:100C8000261C83130008A700840A0008A800270870
:100C900084008317281C831323088004840A2408F3
:100CA000800408000E307B0783120313A0007C0829
:100CB0000318013EA100200884008317211C831320
:100CC000000AA2000130A3000030A4006A2E031025
:100CD000A30DA40DA20B672E7B08840083177C1C38
:100CE00083130008A500840A0008A60025088400D4
:100CF0008317261C831323088004840A2408800495
:100D000010307B07A0007C080318013EA1002008DA
:100D100084008317211C8313000AA2000130A30062
:100D20000030A400962E0310A30DA40DA20B932E49
:100D3000A309A40902307B07A5007C080318013E23
:100D4000A600250884008317261C83130008A7002B
:100D5000840A0008A800270884008317281C83132E
:100D600023088005840A2408800512307B07A00030
:100D70007C080318013EA100200884008317211C71
:100D80008313000AA2000130A3000030A400CB2E80
:100D90000310A30DA40DA20BC82EA309A4090430AF
:100DA0007B07A5007C080318013EA60025088400E7
:100DB0008317261C83130008A700840A0008A800D4
:100DC000270884008317281C831323088005840ABE
:100DD0002408800514307B07A0007C080318013E1E
:100DE000A100200884008317211C8313000AA2009D
:100DF0000130A3000030A400002F0310A30DA40DA8
:100E0000A20BFD2E06307B07A5007C080318013ECF
:100E1000A600250884008317261C83130008A7005A
:100E2000840A0008A800270884008317281C83135D
:100E300023088004840A2408800416307B07A0005D
:100E40007C080318013EA100200884008317211CA0
:100E50008313000AA2000130A3000030A400332F46
:100E60000310A30DA40DA20B302F08307B07A500A3
:100E70007C080318013EA600250884008317261C61
:100E800083130008A700840A0008A800270884002C
:100E90008317281C831323088004840A24088004F1
:100EA00018307B07A0007C080318013EA100200831
:100EB00084008317211C8313000AA2000130A300C1
:100EC0000030A400662F0310A30DA40DA20B632F06
:100ED0000A307B07A5007C080318013EA600250800
:100EE00084008317261C83130008A700840A0008C7
:100EF000A800270884008317281C83132308800474
:100F0000840A240880041A307B07A0007C08031898
:100F1000013EA100200884008317211C8313000ACE
:100F2000A2000130A3000030A400992F0310A30DEC
:100F3000A40DA20B962FA309A4090C307B07A500D2
:100F40007C080318013EA600250884008317261C90
:100F500083130008A700840A0008A800270884005B
:100F60008317281C831323088005840A240880051E
:100F700008007A08003A0319BE2FE12F7908003AD9
:100F80000319E22F013A0319E52F033A0319E82F59
:100F9000013A0319EB2F073A0319EE2F013A03190F
:100FA000F12F033A0319C228013A0319252A0F3AEF
:100FB00003198E2B013A0319EF2C4A3A0319522ECA
:100FC000E12F08000A128A1588280A128A15662D50
:100FD0000A168A11EF2E0A128A15342C0A128A1563
:100FE00097290A128A15002B83120313E701E801DF
:100FF000E901EA01EB01EC0183010A168A11FC2CDC
:10100C00F00083160313981C07287008831203132F
:10101C00990008006430F0000030F10083120313D3
:10102C002A08F3002908F2000A168A1102200A1273
:10103C008A157108FA007008F900831203132D0841
:10104C00FB000130FC000A128A1585200A128A1551
:10105C006430F0000030F100831203132A08F3000F
:10106C002908F2000A168A1549270A128A157108EE
:10107C0083120313AA007008A9000A30F000003094
:10108C00F1002A08F3002908F2000A168A1102203E
:10109C000A128A157108FA007008F90083120313FA
:1010AC002C08FB000130FC000A128A1585200A125C
:1010BC008A150A30F0000030F100831203132A085D
:1010CC00F3002908F2000A168A1549270A128A1514
:1010DC00710883120313AA007008A9008312031766
:1010EC009A15831203132A08FA002908F9002B0811
:1010FC00FB000030FC000A128A15852008000A1239
:10110C008A11B92F0E307B0783120313A0007C08C1
:10111C000318013EA100200884008317211C8313AF
:10112C00000AA2000130A3000030A400A028031084
:10113C00A30DA40DA20B9D287B08840083177C1C97
:10114C0083130008A500840A0008A6002508840063
:10115C008317261C831323088004840A2408800424
:10116C0010307B07A0007C080318013EA10020086A
:10117C0084008317211C8313000AA2000130A300F2
:10118C000030A400CC280310A30DA40DA20BC92879
:10119C0002307B07A5007C080318013EA600250839
:1011AC0084008317261C83130008A700840A0008F8
:1011BC00A800270884008317281C831323088004A5
:1011CC00840A2408800412307B07A0007C080318D2
:1011DC00013EA100200884008317211C8313000A00
:1011EC00A2000130A3000030A400FF280310A30DBF
:1011FC00A40DA20BFC2804307B07A5007C08031867
:10120C00013EA600250884008317261C83130008C2
:10121C00A700840A0008A800270884008317281C4C
:10122C00831323088004840A2408800414307B0769
:10123C00A0007C080318013EA1002008840083173D
:10124C00211C8313000AA2000130A3000030A4006B
:10125C0032290310A30DA40DA20B2F2906307B07F6
:10126C00A5007C080318013EA600250884008317FE
:10127C00261C83130008A700840A0008A80027086E
:10128C0084008317281C831323088004840A2408F1
:10129C00800416307B07A0007C080318013EA100D7
:1012AC00200884008317211C8313000AA20001303C
:1012BC00A3000030A40065290310A30DA40DA20BFC
:1012CC00622908307B07A5007C080318013EA600A4
:1012DC00250884008317261C83130008A700840AA2
:1012EC000008A800270884008317281C83132308F0
:1012FC008004840A2408800418307B07A0007C0832
:10130C000318013EA100200884008317211C8313BD
:10131C00000AA2000130A3000030A4000A128A15B2
:10132C00132D0E307B0783120313A0007C080318C7
:10133C00013EA100200884008317211C8313000A9E
:10134C00A2000130A3000030A400AF290310A30DAC
:10135C00A40DA20BAC29A309A4097B088400831754
:10136C007C1C83130008A500840A0008A60025082D
:10137C0084008317261C831323088005840A240801
:10138C00800510307B07A0007C080318013EA100EB
:10139C00200884008317211C8313000AA20001304B
:1013AC00A3000030A400DD290310A30DA40DA20B93
:1013BC00DA2902307B07A5007C080318013EA60041
:1013CC00250884008317261C83130008A700840AB1
:1013DC000008A800270884008317281C83132308FF
:1013EC008004840A2408800412307B07A0007C0847
:0413FC000318013E93
:10140000A100200884008317211C8313000AA20076
:101410000130A3000030A400102A0310A30DA40D76
:10142000A20B0D2A04307B07A5007C080318013E9F
:10143000A600250884008317261C83130008A70034
:10144000840A0008A800270884008317281C831337
:1014500023088004840A2408800414307B07A00039
:101460007C080318013EA100200884008317211C7A
:101470008313000AA2000130A3000030A400432A15
:101480000310A30DA40DA20B402AA309A409063042
:101490007B07A5007C080318013EA60025088400F0
:1014A0008317261C83130008A700840A0008A800DD
:1014B000270884008317281C831323088005840AC7
:1014C0002408800516307B07A0007C080318013E25
:1014D000A100200884008317211C8313000AA200A6
:1014E0000130A3000030A400782A0310A30DA40D3E
:1014F000A20B752AA309A40908307B07A5007C0864
:101500000318013EA600250884008317261C8313B8
:101510000008A700840A0008A80027088400831791
:10152000281C831323088005840A240880051830AA
:101530007B07A0007C080318013EA100200884005E
:101540008317211C8313000AA2000130A30000307E
:10155000A4000A128A15AF2A0310A30DA40DA20B32
:10156000AC2A0A307B07A5007C080318013EA600C0
:10157000250884008317261C83130008A700840A0B
:101580000008A800270884008317281C8313230859
:101590008004840A240880041A307B07A0007C0899
:1015A0000318013EA100200884008317211C831327
:1015B000000AA2000130A3000030A400E22A0310B8
:1015C000A30DA40DA20BDF2A0C307B07A5007C081D
:1015D0000318013EA600250884008317261C8313E8
:1015E0000008A700840A0008A800270884008317C1
:1015F000281C831323088004840A2408800408001C
:101600000E307B0783120313A0007C080318013EF1
:10161000A100200884008317211C8313000AA20064
:101620000130A3000030A400182B0310A30DA40D5B
:10163000A20B152B7B08840083177C1C83130008E6
:10164000A500840A0008A600250884008317261C2C
:10165000831323088004840A2408800410307B0745
:10166000A0007C080318013EA10020088400831715
:10167000211C8313000AA2000130A3000030A40043
:10168000442B0310A30DA40DA20B412BA309A40905
:1016900002307B07A5007C080318013EA600250840
:1016A00084008317261C83130008A700840A0008FF
:1016B000A800270884008317281C831323088005AB
:1016C000840A2408800512307B07A0007C080318D8
:1016D000013EA100200884008317211C8313000A07
:1016E000A2000130A3000030A400792B0310A30D49
:1016F000A40DA20B762B04307B07A5007C080318F1
:10170000013EA600250884008317261C83130008C9
:10171000A700840A0008A800270884008317281C53
:10172000831323088004840A2408800414307B0770
:10173000A0007C080318013EA10020088400831744
:10174000211C8313000AA2000130A3000030A40072
:10175000AC2B0310A30DA40DA20BA92B06307B0705
:10176000A5007C080318013EA60025088400831705
:10177000261C83130008A700840A0008A800270875
:1017800084008317281C831323088004840A2408F8
:10179000800416307B07A0007C080318013EA100DE
:1017A000200884008317211C8313000AA200013043
:1017B000A3000030A4000A128A113C280310A30DD4
:1017C000A40DA20BDE2BA309A4090A307B07A500F8
:1017D0007C080318013EA600250884008317261CF8
:1017E00083130008A700840A0008A80027088400C3
:1017F0008317281C831323088005840A2408800586
:101800001A307B07A0007C080318013EA1002008C5
:1018100084008317211C8313000AA2000130A30057
:101820000030A400162C0310A30DA40DA20B132C42
:101830000C307B07A5007C080318013EA600250894
:1018400084008317261C83130008A700840A00085D
:10185000A800270884008317281C8313230880040A
:10186000840A2408800408000E307B0783120313C7
:10187000A0007C080318013EA10020088400831703
:10188000211C8313000AA2000130A3000030A40031
:101890004C2C0310A30DA40DA20B492C7B08840033
:1018A00083177C1C83130008A500840A0008A60087
:1018B000250884008317261C831323088004840AC8
:1018C0002408800410307B07A0007C080318013E28
:1018D000A100200884008317211C8313000AA200A2
:1018E0000130A3000030A400782C0310A30DA40D38
:1018F000A20B752C02307B07A5007C080318013E63
:10190000A600250884008317261C83130008A7005F
:10191000840A0008A800270884008317281C831362
:1019200023088004840A2408800412307B07A00066
:101930007C080318013EA100200884008317211CA5
:101940008313000AA2000130A3000030A400AB2CD6
:101950000310A30DA40DA20BA82C04307B07A50037
:101960007C080318013EA600250884008317261C66
:1019700083130008A700840A0008A8002708840031
:101980008317281C831323088004840A24088004F6
:1019900014307B07A0007C080318013EA10020083A
:1019A00084008317211C8313000AA2000130A300C6
:1019B0000030A400DE2C0310A30DA40DA20BDB2C21
:1019C00006307B07A5007C080318013EA600250809
:1019D00084008317261C83130008A700840A0008CC
:1019E000A800270884008317281C83132308800479
:1019F000840A2408800416307B07A0007C080318A2
:101A0000013EA100200884008317211C8313000AD3
:101A1000A2000130A3000030A4000A168A113E295A
:101A20000310A30DA40DA20B102D0A307B07A500F7
:101A30007C080318013EA600250884008317261C95
:101A400083130008A700840A0008A8002708840060
:101A50008317281C831323088004840A2408800425
:101A60001A307B07A0007C080318013EA100200863
:101A700084008317211C8313000AA2000130A300F5
:101A80000030A400462D0310A30DA40DA20B432D7E
:101A9000A309A4090C307B07A5007C080318013EAC
:101AA000A600250884008317261C83130008A700BE
:101AB000840A0008A800270884008317281C8313C1
:101AC00023088005840A2408800508000E307B075F
:101AD00083120313A0007C080318013EA100200814
:101AE00084008317211C8313000AA2000130A30085
:101AF0000030A4007E2D0310A30DA40DA20B7B2D9E
:101B0000A309A4097B08840083177C1C83130008A5
:101B1000A500840A0008A600250884008317261C57
:101B2000831323088005840A2408800510307B076E
:101B3000A0007C080318013EA10020088400831740
:101B4000211C8313000AA2000130A3000030A4006E
:101B5000AC2D0310A30DA40DA20BA92D02307B0701
:101B6000A5007C080318013EA60025088400831701
:101B7000261C83130008A700840A0008A800270871
:101B800084008317281C831323088004840A2408F4
:101B9000800412307B07A0007C080318013EA100DE
:101BA000200884008317211C8313000AA20001303F
:101BB000A3000030A400DF2D0310A30DA40DA20B81
:101BC000DC2D04307B07A5007C080318013EA6002D
:101BD000250884008317261C83130008A700840AA5
:101BE0000008A800270884008317281C83132308F3
:101BF0008004840A2408800414307B07A0007C0839
:101C00000318013EA100200884008317211C8313C0
:101C1000000AA2000130A3000030A400122E03101D
:101C2000A30DA40DA20B0F2EA309A40906307B0758
:101C3000A5007C080318013EA60025088400831730
:101C4000261C83130008A700840A0008A8002708A0
:101C500084008317281C831323088005840A240822
:101C6000800516307B07A0007C080318013EA10008
:101C7000200884008317211C8313000AA20001306E
:101C8000A3000030A4000A168A11C929F4001230FA
:101C9000F2000130F300740884007208831380009E
:101CA0007308840A8000840374080E3E84000630A2
:101CB0008000840A003080001230F2000130F3000E
:101CC0007408023E8400720880007308840A800051
:101CD00084037408103E840007308000840A0030BA
:101CE00080001830F2000130F3007408043E8400D4
:101CF000720880007308840A800084037408123E0E
:101D0000840007308000840A003080001B30F2001D
:101D10000130F3007408063E8400720880007308E6
:101D2000840A800084037408143E84000630800016
:101D3000840A003080001830F2000130F30074088B
:101D4000083E8400720880007308840A80008403BF
:101D50007408163E840006308000840A003080003B
:101D60001530F2000130F30074080A3E8400720856
:101D700080007308840A800084037408183E84007D
:101D800006308000840A003080001530F2000130F7
:101D9000F30074080C3E8400720880007308840A03
:101DA0008000840374081A3E840007308000840A8F
:101DB000003080001030F2000130F3007008840021
:101DC0007208831780007308840A800084037008F7
:101DD0000E3E840006308000840A003080001230FD
:101DE000F2000130F3007008023E840072088000A7
:101DF0007308840A800084037008103E8400053054
:101E00008000840A003080001830F2000130F300B6
:101E10007008043E8400720880007308840A800001
:101E200084037008123E840005308000840A00306C
:101E300080001930F2000130F3007008063E840083
:101E4000720880007308840A800084037008143EBE
:101E5000840006308000840A003080001630F200D2
:101E60000130F3007008083E840072088000730897
:101E7000840A800084037008163E840006308000C7
:101E8000840A003080001330F2000130F300700843
:101E90000A3E8400720880007308840A800084036C
:101EA0007008183E840006308000840A00308000EC
:101EB0001530F2000130F30070080C3E8400720807
:101EC00080007308840A8000840370081A3E84002E
:101ED00005308000840A003080001030F2000130AC
:101EE000F30071088400720880007308840A80007F
:101EF000840371080E3E840003308000840A0030A1
:101F000080001130F2000130F3007108023E8400BD
:101F1000720880007308840A800084037108103EF0
:101F2000840003308000840A003080001730F20003
:101F30000130F3007108043E8400720880007308C9
:101F4000840A800084037108123E840003308000FC
:101F5000840A003080001930F2000130F30071086B
:101F6000063E8400720880007308840A800084039F
:101F70007108143E840003308000840A0030800021
:101F80001630F2000130F3007108083E8400720838
:101F900080007308840A800084037108163E840060
:101FA00003308000840A003080001330F2000130DA
:101FB000F30071080A3E8400720880007308840AE6
:101FC000800084037108183E840003308000840A76
:101FD000003080001430F2000130F30071080C3E34
:101FE0008400720880007308840A800084037108EA
:101FF0001A3E840003308000840A0030800008000C
:10200400F601F11F0C28F009F109F00A0319F10A8D
:10201400F601F60AF31F1728F209F309F20A031965
:10202400F30A0130F4007408F606F701F8017008A9
:10203400710403194E28F501F50AF11B2D2801300E
:102044000310F00DF10DFF3E031D22280130F400B2
:102054007408F5071F2801300310F70DF80DFF3E33
:10206400031D2E2871087302031D3A28700872029A
:10207400031C43287008F2027108031CF303F302E3
:10208400771401300310F10CF00CFF3E031D4428BB
:102094000130F502031D2D28760803195628F70987
:1020A400F809F70A0319F80A7808F1007708F0002C
:1020B400080083120313A3007908A1007808A00084
:1020C4007B08F1007A08F0002108F3002008F200F0
:1020D4000A168A150D270A168A117108831203132A
:1020E400A1007008A0000130FC007C08A3072008B0
:1020F4002104031D62282308840083138001013016
:10210400A3027B08F1007A08F0007908F30078084C
:10211400F2000A128A1107200A168A117008FC00BC
:102124007C0883120313A2007B08F1007A08F000F4
:102134007908F3007808F2000A168A150D270A16A2
:102144008A117108F9007008F8000A308312031329
:102154002202031CB1280730FC007C08A20730309F
:10216400FC007C08A2072208FC00230884007C08E9
:10217400831380000130A30278087904031D8328A7
:102184000130FC007C08A30708008312031326080F
:10219400AA002708AB002808AC002908AD000430C9
:1021A4000310AA0DAB0DAC0DAD0DFF3E031DD228DF
:1021B4002D08F3002C08F2002B08F1002A08F00087
:1021C4000030AE001230AF007A30B0000030B10001
:1021D4002608B2002708B3002808B4002908B5006F
:1021E40004300310B20DB30DB40DB50DFF3E031D45
:1021F400F328B209B309B409B509B20A0319B30A39
:102204000319B40A0319B50A3208AE0733080318D0
:10221400330F0D290E29AF0734080318340F13297F
:102224001429B00735080318350AB1073108F70037
:102234003008F6002F08F5002E08F4000A168A115B
:10224400E1227108FA007008F900831603131815C7
:10225400790899001812831203139817831603132D
:102264008717071783120313181683160313981678
:1022740008000310A30DA40DA20B3B29A309A40974
:1022840008307B07A5007C080318013EA60025083A
:1022940084008317261C83130008A700840A0008FF
:1022A400A800270884008317281C831323088005AB
:1022B400840A2408800518307B07A0007C080318D2
:1022C400013EA100200884008317211C8313000A07
:1022D400A2000130A3000030A40073290310A30D51
:1022E400A40DA20B7029A309A4090A307B07A50039
:1022F4007C080318013EA600250884008317261CC9
:1023040083130008A700840A0008A8002708840093
:102314008317281C831323088005840A2408800556
:102324001A307B07A0007C080318013EA100200896
:1023340084008317211C8313000AA2000130A30028
:102344000030A400A8290310A30DA40DA20BA529F5
:102354000C307B07A5007C080318013EA600250865
:1023640084008317261C83130008A700840A00082E
:10237400A800270884008317281C831323088004DB
:10238400840A2408800408000310A30DA40DA20BE2
:10239400C629A309A40908307B07A5007C080318F3
:1023A400013EA600250884008317261C8313000819
:1023B400A700840A0008A800270884008317281CA3
:1023C400831323088005840A2408800518307B07BA
:1023D400A0007C080318013EA10020088400831794
:1023E400211C8313000AA2000130A3000030A400C2
:0C23F400FE290310A30DA40DA20BFB2971
:10240000A309A4090A307B07A5007C080318013E34
:10241000A600250884008317261C83130008A70044
:10242000840A0008A800270884008317281C831347
:1024300023088005840A240880051A307B07A00041
:102440007C080318013EA100200884008317211C8A
:102450008313000AA2000130A3000030A400332A35
:102460000310A30DA40DA20B302AA309A4090C305C
:102470007B07A5007C080318013EA6002508840000
:102480008317261C83130008A700840A0008A800ED
:10249000270884008317281C831323088005840AD7
:1024A000240880050800831203133D08C1003E087C
:1024B000C2003F08C3000310420D430DC40044088E
:1024C000CA004A08031D6D2A0030C0000030BF005A
:1024D0000030BE000030BD0008003D08C1003E08CD
:1024E000C2003F08C30017300310C30CC20CC10C5C
:1024F000FF3E031D742A4108C4004408C500BE17EE
:10250000FF30BD05FF30BE050030BF053D08C600E9
:102510003E08C7003F08C800C9018E30CA02CA1F62
:10252000AF2A4A08803A8F3E03189F2A0030C00025
:102530000030BF000030BE000030BD000800013098
:102540000310C90CC80CC70CC60CFF3E031DA02A03
:102550000130C1004108CA070319CA2A9F2A18304E
:102560004A02031CC72A0030C0000030BF00003000
:10257000BE000030BD0008000130C1000310C60DD0
:10258000C70DC80DC90DC10BBE2A0130CA024A08C9
:10259000031DBC2A45080319D82AC609C709C8095A
:1025A000C909C60A0319C70A0319C80A0319C90ABF
:1025B0004908C0004808BF004708BE004608BD00E3
:1025C000080083120313A101F31FF32AF009F10994
:1025D000F209F309F00A0319F10A0319F20A0319BF
:1025E000F30AA101A10AF71F042BF409F509F60962
:1025F000F709F40A0319F50A0319F60A0319F70A89
:102600000130F8007808A1060030A5000030A400D1
:102610000030A3000030A20073087204710470043B
:102620000319592BA001A00AF31B242B0130F80039
:102630000310F00DF10DF20DF30DF80B182B013016
:10264000F8007808A007142B0130F8000310A20D41
:10265000A30DA40DA50DF80B262B73087702031DFF
:102660003B2B72087602031D3B2B71087502031D7C
:102670003B2B70087402031C4C2B7008F402710889
:10268000031C710FF5027208031C720FF602730827
:10269000031C730FF702221401300310F30CF20C29
:1026A000F10CF00CFF3E031D4D2B0130A002031D69
:1026B000242B21080319672BA209A309A409A50942
:1026C000A20A0319A30A0319A40A0319A50A2508D3
:1026D000F3002408F2002308F1002208F0000800AB
:1026E000831203134D09CF004E09D000CF0A0319FE
:1026F000D00A4B084F07D4004C0803184C0A500767
:10270000D50054085504031908005508EC00540876
:10271000EB0054086907E90055080318550A6A07D1
:10272000EA00E701E8016C08F9006B08F8000A16F6
:102730008A15EC260A168A11780883120313A3005F
:102740007908A4007A08A5005E08A0005F08A1002F
:102750006008A2000A168A1129240A168A11831217
:1027600003132008B3002108B4002208B5006A084A
:10277000F9006908F8000A168A15EC260A168A116B
:10278000780883120313A3007908A4007A08A5002F
:102790006408A0006508A1006608A2000A168A1154
:1027A00029240A168A11831203132008B000210875
:1027B000B1002208B2000A168A11E6250A168A110B
:1027C000831203133008D1003108D2003208D3003D
:1027D0005108B3005208B4005308B5006808F90066
:1027E0006708F8000A168A15EC260A168A11780876
:1027F00083120313A3007908A4007A08A5006108D6
:10280000A0006208A1006308A2000A168A11292408
:102810000A168A11831203132008B0002108B100A0
:102820002208B2000A168A11E6250A168A118312B6
:1028300003133008BD003108BE003208BF000A167D
:102840008A115322831203133E08CC003D08CB00AB
:102850000800831203132008A6002108A7002208FD
:10286000A8000310270D280DA9002908AA002A088E
:10287000031D412C0030A0000030A1000030A20058
:1028800008002308A6002408A7002508A8000310B4
:10289000270D280DA9002908AF002F08031D572C6C
:1028A0000030A0000030A1000030A20008002F0876
:1028B0007B3EA6002608AA072008A6002108A7003C
:1028C0002208A80010300310A80CA70CA60CFF3E8D
:1028D000031D632C2608A9002908AF002308A600C1
:1028E0002408A7002508A80010300310A80CA70C86
:1028F000A60CFF3E031D752C2608A9002908AF066B
:102900008030A6002608AF05A117A417FF30A30545
:10291000FF30A4050030A5050030AB000030AC004E
:102920000030AD000730A6002608AE00201CA62C03
:102930002308AB07240803110318240A031DAC075E
:10294000250803110318250A031DAD0701300310E4
:10295000A20CA10CA00CFF3E031DA72C01300310FC
:10296000A30DA40DA50DFF3E031DAF2C0130AE023B
:10297000031D962C0930A6002608AE00201CCE2C84
:102980002308AB07240803110318240A031DAC070E
:10299000250803110318250A031DAD070130031094
:1029A000A20CA10CA00CFF3E031DCF2C0130031084
:1029B000AD0CAC0CAB0CFF3E031DD72C0130AE02AE
:1029C000031DBE2C2B08F0002C08F1002D08F2008E
:1029D0002A08A6002608F3002F08A7002708F400FD
:1029E0000A168A159427700883120313A000710831
:1029F000A1007208A2000800193083120313DA0044
:102A00000030DB000A168A1599260A168A119030C2
:102A100083120313D6005608F000AC30D7005708D5
:102A2000F100C1300A128A1546260A168A110030B2
:102A300083120313A9000030A8002530A7008030BE
:102A4000A6000A168A11C7200A168A110A168A15C4
:102A5000B2260A168A1183160313880170308F007C
:102A60003F3092008B01831203139B010C309D00B9
:102A7000043092000130D6000030871A0130013E48
:102A8000432D0310D60DFF3E031D412D5608D700E0
:102A90005708831603138704013083120313D600EB
:102AA000003010190130013E572D0310D60DFF3EA6
:102AB000031D552D0130D700003090180130013E24
:102AC000632D0310D70DFF3E031D612D0130D8008B
:102AD000003010180130013E6F2D0310D80DFF3E5D
:102AE000031D6D2D580857045604D9005908900449
:102AF0000130D6000030881B0130013E812D0310CB
:102B0000D60DFF3E031D7F2D5608D70057088804B9
:102B10008F018E01831203130F08DD000E08DC0005
:102B20005D08AA005C08A900C130D6005608AB00B9
:102B30009030D7005708AC00AC30D8005808AD0032
:102B40000A128A1510200A168A11831203135B08D1
:102B5000CC005A08CB005D08CE005C08CD000A16F8
:102B60008A1170230A168A11831203134B089B00E3
:102B70005D08F9005C08F8000A30FA000030FB003C
:102B8000A0300A168A115B200A168A11A0300A1694
:102B90008A15CD260A168A110A300A128A150620CD
:102BA0000A168A11831203138F018E0107308312D4
:102BB0000313D8001730D7006930D600D60BDE2DAE
:102BC000D70BDE2DD80BDE2DE52D8A2D83120313B6
:102BD0003008B6003108B7003208B8000310370DCE
:102BE000380DB9003908BC003308B6003408B70006
:102BF0003508B8000310370D380DB9003908BB008F
:102C00003C0803190F2E3B083C020318162E3C0308
:102C1000FF3A3B07B60019303602031C162E330864
:102C2000B0003408B1003508B20008003B080319B1
:102C300008003C083B020318252E3B03FF3A3C07E3
:102C4000B60019303602031808000630B600360800
:102C5000BA00B21BBA17B51B3A17B117FF30B0054F
:102C6000FF30B1050030B205B417FF30B305FF30B7
:102C7000B4050030B5053B083C020318652E013051
:102C80000310B30DB40DB50DFF3E031D402E0130F2
:102C9000BB023B083C060319602E0130BA023A0819
:102CA00007390319602E3F2E01300310B20CB10C0E
:102CB000B00CFF3E031D552E0130B6003608BC0790
:102CC0003C083B0603198E2E542E3C083B02031889
:102CD0008E2E01300310B00DB10DB20DFF3E031D5D
:102CE0006A2E0130BC023B083C0603198A2E0130D3
:102CF000BA023A08073903198A2E692E01300310E7
:102D0000B50CB40CB30CFF3E031D7F2E0130B60092
:102D10003608BB073C083B06031D7E2EBA1FA02EBB
:102D2000FF30B006FF30B106FF30B2060130B00709
:102D3000003003180130B107003003180130B2072A
:102D40003A1FB22EFF30B306FF30B406FF30B5068F
:102D50000130B307003003180130B4070030031806
:102D60000130B507BA013008B30731080311031861
:102D7000310A031DB407320803110318320A031D78
:102D8000B507B51FD52EFF30B306FF30B406FF30B0
:102D9000B5060130B307003003180130B407003026
:102DA00003180130B507BA01BA0A3308F000340835
:102DB000F1003508F2003C08B6003608F3003A0886
:102DC000B7003708F4000A168A1594277008831292
:102DD0000313B0007108B1007208B20008000E3091
:102DE0007B0783120313A0007C080318013EA10097
:102DF000200884008317211C8313000AA2000130DD
:102E0000A3000030A400072F0310A30DA40DA20BF4
:102E1000042F7B08840083177C1C83130008A50003
:102E2000840A0008A600250884008317261C831343
:102E300023088004840A2408800410307B07A00043
:102E40007C080318013EA100200884008317211C80
:102E50008313000AA2000130A3000030A400332F26
:102E60000310A30DA40DA20B302F02307B07A50089
:102E70007C080318013EA600250884008317261C41
:102E800083130008A700840A0008A800270884000C
:102E90008317281C831323088004840A24088004D1
:102EA00012307B07A0007C080318013EA100200817
:102EB00084008317211C8313000AA2000130A300A1
:102EC0000030A400662F0310A30DA40DA20B632FE6
:102ED000A309A40904307B07A5007C080318013E60
:102EE000A600250884008317261C83130008A7006A
:102EF000840A0008A800270884008317281C83136D
:102F000023088005840A2408800514307B07A0006C
:102F10007C080318013EA100200884008317211CAF
:102F20008313000AA2000130A3000030A4009B2FED
:102F30000310A30DA40DA20B982F06307B07A5004C
:102F40007C080318013EA600250884008317261C70
:102F500083130008A700840A0008A800270884003B
:102F60008317281C831323088004840A2408800400
:102F700016307B07A0007C080318013EA100200842
:102F800084008317211C8313000AA2000130A300D0
:102F90000030A400CE2F0310A30DA40DA20BCB2F45
:102FA00008307B07A5007C080318013EA600250811
:102FB00084008317261C83130008A700840A0008D6
:102FC000A800270884008317281C83132308800483
:102FD000840A2408800418307B07A0007C080318AA
:102FE000013EA100200884008317211C8313000ADE
:102FF000A2000130A3000030A4000A128A15E12BC0
:103D32004F30831203179C0008309D00E1309E0033
:103D420090019101920193019401950196019701CD
:103D5200980199019A019B012030880093308700D5
:103D6200080083120313EB01EC01E901EA01E70108
:103D7200E8011230DE008330DF003A30E00000302C
:103D8200E4008030E5003F30E6000030E1008030A2
:103D9200E2003F30E3000800F400F201F301720890
:103DA2007407F100710884008313000803190800E6
:103DB20072087407F10071088400831300080A1264
:103DC2008A1506200A168A150130F2070318F30A2B
:103DD2000030F307D02EFD01F91FF62EF809F9097C
:103DE200F80A0319F90AFD01FD0A7808F0007908BA
:103DF200F100F2018E30FB007B08F3007D08FC002D
:103E02007C08F4000A168A1594277008F8007108D5
:103E1200F9007208FA000800F501F6017008710451
:103E22000319442FF701F70AF11B232F0130031066
:103E3200F00DF10DFF3E031D182F0130F400740840
:103E4200F707152F01300310F50DF60DFF3E031D88
:103E5200242F71087302031D302F70087202031C95
:103E6200392F7008F2027108031CF303F302751470
:103E720001300310F10CF00CFF3E031D3A2F01300C
:103E8200F702031D232F7608F1007508F0000800E1
:103E9200F601F31F532FF209F309F20A0319F30A89
:103EA200F601F60AF11F5A2FF009F109F00A031977
:103EB200F10A700871040319872FF501F50AF11B45
:103EC2006E2F01300310F00DF10DFF3E031D632F25
:103ED2000130F4007408F507602F71087302031DA6
:103EE200742F70087202031C7C2F7008F202710892
:103EF200031CF303F30201300310F10CF00CFF3E3C
:103F0200031D7D2F0130F502031D6E2F7608031964
:103F12008F2FF209F309F20A0319F30A7308F10069
:103F22007208F0000800730803199C2F72087104CC
:103F32007004031DAF2F0030F0000030F10000309C
:103F4200F20008000130F5007508F3070130031094
:103F5200F20CF10CF00CFF3E031DA82FFE3072058F
:103F62000319CA2FA32F0130F5007508F30701309A
:103F7200F007003003180130F10700300318013058
:103F8200F20701300310F20CF10CF00CFF3E031D9E
:103F9200C32FFF3072050319D92FB42F0130F3025A
:103FA20001300310F00DF10DF20DFF3E031DD22F73
:103FB200F11BDF2F023073020318CF2F7318E72F84
:103FC200FF30F0057F30F105FF30F2050310F30CEE
:103FD2007308F500F601F70110300310F50DF60D28
:103FE200F70DFF3E031DEE2F7508F0047608F1046D
:0E3FF2007708F204740803190800F21708009B
:02400E00F4FFBD
:00000001FF
