:100000000A128A11F02F7008710403193028F501C3
:10001000F50AF11B172801300310F00DF10DFF3E1A
:10002000031D0C280130F4007408F5070928710835
:100030007302031D1D2870087202031C2528700816
:10004000F2027108031CF303F30201300310F10CF8
:10005000F00CFF3E031D26280130F502031D172872
:100060007308F1007208F00008000310A30DA40D3E
:10007000A20B3528A309A40908307B07A5007C083A
:100080000318013EA600250884008317261C83134D
:100090000008A700840A0008A80027088400831726
:1000A000281C831323088005840A2408800518303F
:1000B0007B07A0007C080318013EA10020088400F3
:1000C0008317211C8313000AA2000130A300003013
:1000D000A4006D280310A30DA40DA20B6A280A30FA
:1000E0007B07A5007C080318013EA60025088400B4
:1000F0008317261C83130008A700840A0008A800A1
:10010000270884008317281C831323088004840A8B
:10011000240880041A307B07A0007C080318013EE5
:10012000A100200884008317211C8313000AA20069
:100130000130A3000030A400A0280310A30DA40DDB
:10014000A20B9D280C307B07A5007C080318013EFC
:10015000A600250884008317261C83130008A70027
:10016000840A0008A800270884008317281C83132A
:1001700023088004840A2408800408000E307B07CA
:1001800083120313A0007C080318013EA10020087D
:1001900084008317211C8313000AA2000130A300EE
:1001A0000030A400D6280310A30DA40DA20BD32861
:1001B0007B08840083177C1C83130008A500840A35
:1001C0000008A600250884008317261C8313230833
:1001D0008004840A2408800410307B07A0007C0877
:1001E0000318013EA100200884008317211C8313FB
:1001F000000AA2000130A3000030A400022903106D
:10020000A30DA40DA20BFF28A309A40902307B07AC
:10021000A5007C080318013EA6002508840083176A
:10022000261C83130008A700840A0008A8002708DA
:1002300084008317281C831323088005840A24085C
:10024000800512307B07A0007C080318013EA10046
:10025000200884008317211C8313000AA2000130A8
:10026000A3000030A40037290310A30DA40DA20B96
:10027000342904307B07A5007C080318013EA60042
:10028000250884008317261C83130008A700840A0E
:100290000008A800270884008317281C831323085C
:1002A0008004840A2408800414307B07A0007C08A2
:1002B0000318013EA100200884008317211C83132A
:1002C000000AA2000130A3000030A4006A29031034
:1002D000A30DA40DA20B672906307B07A5007C089F
:1002E0000318013EA600250884008317261C8313EB
:1002F0000008A700840A0008A800270884008317C4
:10030000281C831323088004840A240880041630E0
:100310007B07A0007C080318013EA1002008840090
:100320008317211C8313000AA2000130A3000030B0
:10033000A4009D290310A30DA40DA20B9A29083037
:100340007B07A5007C080318013EA6002508840051
:100350008317261C83130008A700840A0008A8003E
:10036000270884008317281C831323088004840A29
:100370002408800418307B07A0007C080318013E85
:10038000A100200884008317211C8313000AA20007
:100390000130A3000030A400D0290310A30DA40D48
:1003A000A20BCD290A307B07A5007C080318013E6B
:1003B000A600250884008317261C83130008A700C5
:1003C000840A0008A800270884008317281C8313C8
:1003D00023088004840A240880041A307B07A000C4
:1003E0007C080318013EA100200884008317211C0B
:1003F0008313000AA2000130A3000030A400032AE6
:100400000310A30DA40DA20B002A0C307B07A5003E
:100410007C080318013EA600250884008317261CCB
:1004200083130008A700840A0008A8002708840096
:100430008317281C831323088004840A240880045B
:1004400008000E307B0783120313A0007C080318FA
:10045000013EA100200884008317211C8313000A99
:10046000A2000130A3000030A400392A0310A30D1C
:10047000A40DA20B362A7B08840083177C1C8313EF
:100480000008A500840A0008A60025088400831738
:10049000261C831323088004840A24088004103057
:1004A0007B07A0007C080318013EA10020088400FF
:1004B0008317211C8313000AA2000130A30000301F
:1004C000A400652A0310A30DA40DA20B622A02301A
:1004D0007B07A5007C080318013EA60025088400C0
:1004E0008317261C83130008A700840A0008A800AD
:1004F000270884008317281C831323088004840A98
:100500002408800412307B07A0007C080318013EF9
:10051000A100200884008317211C8313000AA20075
:100520000130A3000030A400982A0310A30DA40DED
:10053000A20B952A04307B07A5007C080318013E16
:10054000A600250884008317261C83130008A70033
:10055000840A0008A800270884008317281C831336
:1005600023088004840A2408800414307B07A00038
:100570007C080318013EA100200884008317211C79
:100580008313000AA2000130A3000030A400CB2A8C
:100590000310A30DA40DA20BC82AA309A4090630B9
:1005A0007B07A5007C080318013EA60025088400EF
:1005B0008317261C83130008A700840A0008A800DC
:1005C000270884008317281C831323088005840AC6
:1005D0002408800516307B07A0007C080318013E24
:1005E000A100200884008317211C8313000AA200A5
:1005F0000130A3000030A400002B0310A30DA40DB4
:10060000A20BFD2AA309A40908307B07A5007C08DA
:100610000318013EA600250884008317261C8313B7
:100620000008A700840A0008A80027088400831790
:10063000281C831323088005840A240880051830A9
:100640007B07A0007C080318013EA100200884005D
:100650008317211C8313000AA2000130A30000307D
:10066000A400352B0310A30DA40DA20B322BA3095C
:10067000A4090A307B07A5007C080318013EA600E8
:10068000250884008317261C83130008A700840A0A
:100690000008A800270884008317281C8313230858
:1006A0008005840A240880051A307B07A0007C0896
:1006B0000318013EA100200884008317211C831326
:1006C000000AA2000130A3000030A4006A2B03102E
:1006D000A30DA40DA20B672BA309A4090C307B0763
:1006E000A5007C080318013EA60025088400831796
:1006F000261C83130008A700840A0008A800270806
:1007000084008317281C831323088005840A240887
:10071000800508000E307B0783120313A0007C08BD
:100720000318013EA100200884008317211C8313B5
:10073000000AA2000130A3000030A400A22B031085
:10074000A30DA40DA20B9F2B7B08840083177C1C98
:1007500083130008A500840A0008A6002508840069
:100760008317261C831323088004840A240880042A
:1007700010307B07A0007C080318013EA100200870
:1007800084008317211C8313000AA2000130A300F8
:100790000030A400CE2B0310A30DA40DA20BCB2B75
:1007A00002307B07A5007C080318013EA60025083F
:1007B00084008317261C83130008A700840A0008FE
:1007C000A800270884008317281C831323088004AB
:1007D000840A2408800412307B07A0007C080318D8
:1007E000013EA100200884008317211C8313000A06
:1007F000A2000130A3000030A400012C0310A30DBF
:10080000A40DA20BFE2B04307B07A5007C08031867
:10081000013EA600250884008317261C83130008C8
:10082000A700840A0008A800270884008317281C52
:10083000831323088004840A2408800414307B076F
:10084000A0007C080318013EA10020088400831743
:10085000211C8313000AA2000130A3000030A40071
:10086000342C0310A30DA40DA20B312C06307B07F2
:10087000A5007C080318013EA60025088400831704
:10088000261C83130008A700840A0008A800270874
:1008900084008317281C831323088004840A2408F7
:1008A000800416307B07A0007C080318013EA100DD
:1008B000200884008317211C8313000AA200013042
:1008C000A3000030A400672C0310A30DA40DA20BFD
:1008D000642C08307B07A5007C080318013EA600A5
:1008E000250884008317261C83130008A700840AA8
:1008F0000008A800270884008317281C83132308F6
:100900008004840A2408800418307B07A0007C0837
:100910000318013EA100200884008317211C8313C3
:10092000000AA2000130A3000030A4009A2C03109A
:10093000A30DA40DA20B972C0A307B07A5007C0801
:100940000318013EA600250884008317261C831384
:100950000008A700840A0008A8002708840083175D
:10096000281C831323088004840A240880041A3076
:100970007B07A0007C080318013EA100200884002A
:100980008317211C8313000AA2000130A30000304A
:10099000A400CD2C0310A30DA40DA20BCA2C0C3067
:1009A0007B07A5007C080318013EA60025088400EB
:1009B0008317261C83130008A700840A0008A800D8
:1009C000270884008317281C831323088004840AC3
:1009D0002408800408000E307B0783120313A00054
:1009E0007C080318013EA100200884008317211C05
:1009F0008313000AA2000130A3000030A400032DDD
:100A00000310A30DA40DA20B002D7B0884008317F7
:100A10007C1C83130008A500840A0008A600250892
:100A200084008317261C831323088004840A240867
:100A3000800410307B07A0007C080318013EA10051
:100A4000200884008317211C8313000AA2000130B0
:100A5000A3000030A4002F2D0310A30DA40DA20BA2
:100A60002C2D02307B07A5007C080318013EA60050
:100A7000250884008317261C83130008A700840A16
:100A80000008A800270884008317281C8313230864
:100A90008004840A2408800412307B07A0007C08AC
:100AA0000318013EA100200884008317211C831332
:100AB000000AA2000130A3000030A400622D031040
:100AC000A30DA40DA20B5F2D04307B07A5007C08AD
:100AD0000318013EA600250884008317261C8313F3
:100AE0000008A700840A0008A800270884008317CC
:100AF000281C831323088004840A240880041430EB
:100B00007B07A0007C080318013EA1002008840098
:100B10008317211C8313000AA2000130A3000030B8
:100B2000A400952D0310A30DA40DA20B922D063049
:100B30007B07A5007C080318013EA6002508840059
:100B40008317261C83130008A700840A0008A80046
:100B5000270884008317281C831323088004840A31
:100B60002408800416307B07A0007C080318013E8F
:100B7000A100200884008317211C8313000AA2000F
:100B80000130A3000030A400C82D0310A30DA40D54
:100B9000A20BC52DA309A40908307B07A5007C087A
:100BA0000318013EA600250884008317261C831322
:100BB0000008A700840A0008A800270884008317FB
:100BC000281C831323088005840A24088005183014
:100BD0007B07A0007C080318013EA10020088400C8
:100BE0008317211C8313000AA2000130A3000030E8
:100BF000A400FD2D0310A30DA40DA20BFA2D0A30A5
:100C00007B07A5007C080318013EA6002508840088
:100C10008317261C83130008A700840A0008A80075
:100C2000270884008317281C831323088004840A60
:100C3000240880041A307B07A0007C080318013EBA
:100C4000A100200884008317211C8313000AA2003E
:100C50000130A3000030A400302E0310A30DA40D1A
:100C6000A20B2D2E0C307B07A5007C080318013E3B
:100C7000A600250884008317261C83130008A700FC
:100C8000840A0008A800270884008317281C8313FF
:100C900023088004840A2408800408000E307B079F
:100CA00083120313A0007C080318013EA100200852
:100CB00084008317211C8313000AA2000130A300C3
:100CC0000030A400662E0310A30DA40DA20B632E0A
:100CD0007B08840083177C1C83130008A500840A0A
:100CE0000008A600250884008317261C8313230808
:100CF0008004840A2408800410307B07A0007C084C
:100D00000318013EA100200884008317211C8313CF
:100D1000000AA2000130A3000030A400922E0310AC
:100D2000A30DA40DA20B8F2EA309A40902307B07EB
:100D3000A5007C080318013EA6002508840083173F
:100D4000261C83130008A700840A0008A8002708AF
:100D500084008317281C831323088005840A240831
:100D6000800512307B07A0007C080318013EA1001B
:100D7000200884008317211C8313000AA20001307D
:100D8000A3000030A400C72E0310A30DA40DA20BD6
:100D9000C42EA309A40904307B07A5007C0803180E
:100DA000013EA600250884008317261C8313000833
:100DB000A700840A0008A800270884008317281CBD
:100DC000831323088005840A2408800514307B07D8
:100DD000A0007C080318013EA100200884008317AE
:100DE000211C8313000AA2000130A3000030A400DC
:100DF000FC2E0310A30DA40DA20BF92E06307B07C9
:100E0000A5007C080318013EA6002508840083176E
:100E1000261C83130008A700840A0008A8002708DE
:100E200084008317281C831323088004840A240861
:100E3000800416307B07A0007C080318013EA10047
:100E4000200884008317211C8313000AA2000130AC
:100E5000A3000030A4002F2F0310A30DA40DA20B9C
:100E60002C2F08307B07A5007C080318013EA60044
:100E7000250884008317261C83130008A700840A12
:100E80000008A800270884008317281C8313230860
:100E90008004840A2408800418307B07A0007C08A2
:100EA0000318013EA100200884008317211C83132E
:100EB000000AA2000130A3000030A400622F03103A
:100EC000A30DA40DA20B5F2F0A307B07A5007C08A1
:100ED0000318013EA600250884008317261C8313EF
:100EE0000008A700840A0008A800270884008317C8
:100EF000281C831323088004840A240880041A30E1
:100F00007B07A0007C080318013EA1002008840094
:100F10008317211C8313000AA2000130A3000030B4
:100F2000A400952F0310A30DA40DA20B922FA309CB
:100F3000A4090C307B07A5007C080318013EA6001D
:100F4000250884008317261C83130008A700840A41
:100F50000008A800270884008317281C831323088F
:100F60008005840A2408800508007A08003A0319DD
:100F7000BA2FDD2F7908003A0319DE2F013A031941
:100F8000E12F033A0319E42F013A0319E72F073A37
:100F90000319EA2F013A0319ED2F033A0319BE286A
:100FA000013A0319212A0F3A03198A2B013A03192E
:100FB000EB2C4A3A03194E2EDD2F08000A168A112F
:100FC000DC2D0A128A15602B0A168A11C82C0A1207
:100FD0008A152E2A0A168A11EB2E0A128A15FA2869
:100FE0008317BD30FD000830FE000630FF00AC3036
:100FF00084000A168A153B2683010A128A15FA2DE7
:10100C00393439343934393439343934393439346C
:10101C00393439343934393439343934393439345C
:10102C00003483120313A101F31F2928F009F109DD
:10103C00F209F309F00A0319F10A0319F20A031968
:10104C00F30AA101A10AF71F3A28F409F509F609D8
:10105C00F709F40A0319F50A0319F60A0319F70A32
:10106C000130F8007808A1060030A5000030A4007B
:10107C000030A3000030A2007308720471047004E5
:10108C0003198F28A001A00AF31B5A280130F8007D
:10109C000310F00DF10DF20DF30DF80B4E2801308D
:1010AC00F8007808A0074A280130F8000310A20DB8
:1010BC00A30DA40DA50DF80B5C2873087702031D76
:1010CC00712872087602031D712871087502031DC0
:1010DC00712870087402031C82287008F4027108CD
:1010EC00031C710FF5027208031C720FF6027308D1
:1010FC00031C730FF702221401300310F30CF20CD3
:10110C00F10CF00CFF3E031D83280130A002031DDF
:10111C005A28210803199D28A209A309A409A50985
:10112C00A20A0319A30A0319A40A0319A50A25087C
:10113C00F3002408F2002308F1002208F000080054
:10114C000310A30DA40DA20BA6280A307B07A50043
:10115C007C080318013EA600250884008317261C72
:10116C0083130008A700840A0008A800270884003D
:10117C008317281C831323088004840A2408800402
:10118C001A307B07A0007C080318013EA100200840
:10119C0084008317211C8313000AA2000130A300D2
:1011AC000030A400DC280310A30DA40DA20BD92839
:1011BC000C307B07A5007C080318013EA60025080F
:1011CC0084008317261C83130008A700840A0008D8
:1011DC00A800270884008317281C83132308800485
:1011EC00840A2408800408000E307B078312031342
:1011FC00A0007C080318013EA1002008840083177E
:10120C00211C8313000AA2000130A3000030A400AB
:10121C0012290310A30DA40DA20B0F297B08840027
:10122C0083177C1C83130008A500840A0008A60001
:10123C00250884008317261C831323088004840A42
:10124C002408800410307B07A0007C080318013EA2
:10125C00A100200884008317211C8313000AA2001C
:10126C000130A3000030A4003E290310A30DA40DEF
:10127C00A20B3B29A309A40902307B07A5007C081B
:10128C000318013EA600250884008317261C83132F
:10129C000008A700840A0008A80027088400831708
:1012AC00281C831323088005840A24088005123027
:1012BC007B07A0007C080318013EA10020088400D5
:1012CC008317211C8313000AA2000130A3000030F5
:1012DC00A40073290310A30DA40DA20B70290430D4
:1012EC007B07A5007C080318013EA6002508840096
:1012FC008317261C83130008A700840A0008A80083
:10130C00270884008317281C831323088004840A6D
:10131C002408800414307B07A0007C080318013ECD
:10132C00A100200884008317211C8313000AA2004B
:10133C000130A3000030A400A6290310A30DA40DB6
:10134C00A20BA32906307B07A5007C080318013EDD
:10135C00A600250884008317261C83130008A70009
:10136C00840A0008A800270884008317281C83130C
:10137C0023088004840A2408800416307B07A0000C
:10138C007C080318013EA100200884008317211C4F
:10139C008313000AA2000130A3000030A4000A123B
:1013AC008A1138280310A30DA40DA20BD829A30968
:1013BC00A4090A307B07A5007C080318013EA6008F
:1013CC00250884008317261C83130008A700840AB1
:1013DC000008A800270884008317281C83132308FF
:1013EC008005840A240880051A307B07A0007C083D
:1013FC000318013EA100200884008317211C8313CD
:10140C00000AA2000130A3000030A400102A03102F
:10141C00A30DA40DA20B0D2A0C307B07A5007C0894
:10142C000318013EA600250884008317261C83138D
:10143C000008A700840A0008A80027088400831766
:10144C00281C831323088004840A240880040800C1
:10145C000E307B0783120313A0007C080318013E97
:10146C00A100200884008317211C8313000AA2000A
:10147C000130A3000030A400462A0310A30DA40DD4
:10148C00A20B432A7B08840083177C1C831300085F
:10149C00A500840A0008A600250884008317261CD2
:1014AC00831323088004840A2408800410307B07EB
:1014BC00A0007C080318013EA100200884008317BB
:1014CC00211C8313000AA2000130A3000030A400E9
:1014DC00722A0310A30DA40DA20B6F2A02307B07F6
:1014EC00A5007C080318013EA6002508840083177C
:1014FC00261C83130008A700840A0008A8002708EC
:10150C0084008317281C831323088004840A24086E
:10151C00800412307B07A0007C080318013EA10058
:10152C00200884008317211C8313000AA2000130B9
:10153C00A3000030A400A52A0310A30DA40DA20B38
:10154C00A22A04307B07A5007C080318013EA600E4
:10155C00250884008317261C83130008A700840A1F
:10156C000008A800270884008317281C831323086D
:10157C008004840A2408800414307B07A0007C08B3
:10158C000318013EA100200884008317211C83133B
:10159C00000AA2000130A3000030A400D82A0310D6
:1015AC00A30DA40DA20BD52A06307B07A5007C0841
:1015BC000318013EA600250884008317261C8313FC
:1015CC000008A700840A0008A800270884008317D5
:1015DC00281C831323088004840A240880041630F2
:1015EC007B07A0007C080318013EA10020088400A2
:1015FC008317211C8313000AA2000130A3000030C2
:10160C00A4000A168A1149290310A30DA40DA20BDC
:10161C000A2B0A307B07A5007C080318013EA600A4
:10162C00250884008317261C83130008A700840A4E
:10163C000008A800270884008317281C831323089C
:10164C008004840A240880041A307B07A0007C08DC
:10165C000318013EA100200884008317211C83136A
:10166C00000AA2000130A3000030A400402B03109C
:10167C00A30DA40DA20B3D2BA309A4090C307B07D1
:10168C00A5007C080318013EA600250884008317DA
:10169C00261C83130008A700840A0008A80027084A
:1016AC0084008317281C831323088005840A2408CC
:1016BC00800508000E307B0783120313A0007C0802
:1016CC000318013EA100200884008317211C8313FA
:1016DC00000AA2000130A3000030A400782B0310F4
:1016EC00A30DA40DA20B752BA309A4097B088400E0
:1016FC0083177C1C83130008A500840A0008A6002D
:10170C00250884008317261C831323088005840A6C
:10171C002408800510307B07A0007C080318013ECC
:10172C00A100200884008317211C8313000AA20047
:10173C000130A3000030A400A62B0310A30DA40DB0
:10174C00A20BA32B02307B07A5007C080318013EDB
:10175C00A600250884008317261C83130008A70005
:10176C00840A0008A800270884008317281C831308
:10177C0023088004840A2408800412307B07A0000C
:10178C007C080318013EA100200884008317211C4B
:10179C008313000AA2000130A3000030A400D92B4F
:1017AC000310A30DA40DA20BD62B04307B07A500B0
:1017BC007C080318013EA600250884008317261C0C
:1017CC0083130008A700840A0008A80027088400D7
:1017DC008317281C831323088004840A240880049C
:1017EC0014307B07A0007C080318013EA1002008E0
:1017FC0084008317211C8313000AA2000130A3006C
:10180C000030A4000C2C0310A30DA40DA20B092C6A
:10181C00A309A40906307B07A5007C080318013E28
:10182C00A600250884008317261C83130008A70034
:10183C00840A0008A800270884008317281C831337
:10184C0023088005840A2408800516307B07A00035
:10185C007C080318013EA100200884008317211C7A
:10186C008313000AA2000130A3000030A4000A1662
:10187C008A11D429F4001230F2000130F3007408FC
:10188C0084007208831380007308840A8000840328
:10189C0074080E3E840006308000840A00308000FC
:1018AC001230F2000130F3007408023E840072081A
:1018BC0080007308840A800084037408103E84003E
:1018CC0007308000840A003080001830F2000130AC
:1018DC00F3007408043E8400720880007308840AC4
:1018EC00800084037408123E840007308000840A50
:1018FC00003080001B30F2000130F3007408063E0B
:10190C008400720880007308840A800084037408C1
:10191C00143E840006308000840A003080001830A9
:10192C00F2000130F3007408083E84007208800055
:10193C007308840A800084037408163E8400063001
:10194C008000840A003080001530F2000130F30072
:10195C0074080A3E8400720880007308840A8000B0
:10196C0084037408183E840006308000840A00301A
:10197C0080001530F2000130F30074080C3E840036
:10198C00720880007308840A8000840374081A3E6D
:10199C00840007308000840A003080001030F20090
:1019AC000130F30070088400720880007308840A08
:1019BC008000840370080E3E840006308000840A88
:1019CC00003080001230F2000130F3007008023E4B
:1019DC008400720880007308840A800084037008F5
:1019EC00103E840005308000840A003080001830DE
:1019FC00F2000130F3007008043E8400720880008D
:101A0C007308840A800084037008123E8400053039
:101A1C008000840A003080001930F2000130F3009D
:101A2C007008063E8400720880007308840A8000E7
:101A3C0084037008143E840006308000840A003051
:101A4C0080001630F2000130F3007008083E84006C
:101A5C00720880007308840A800084037008163EA4
:101A6C00840006308000840A003080001330F200BD
:101A7C000130F30070080A3E84007208800073087D
:101A8C00840A800084037008183E840006308000AD
:101A9C00840A003080001530F2000130F300700829
:101AAC000C3E8400720880007308840A8000840352
:101ABC0070081A3E840005308000840A00308000D3
:101ACC001030F2000130F3007108840072088317A3
:101ADC0080007308840A8000840371080E3E840021
:101AEC0003308000840A003080001130F200013095
:101AFC00F3007108023E8400720880007308840AA7
:101B0C00800084037108103E840003308000840A36
:101B1C00003080001730F2000130F3007108043EF1
:101B2C008400720880007308840A800084037108A2
:101B3C00123E840003308000840A0030800019308B
:101B4C00F2000130F3007108063E84007208800038
:101B5C007308840A800084037108143E84000330E7
:101B6C008000840A003080001630F2000130F3004F
:101B7C007108083E8400720880007308840A800093
:101B8C0084037108163E840003308000840A003000
:101B9C0080001330F2000130F30071080A3E84001B
:101BAC00720880007308840A800084037108183E50
:101BBC00840003308000840A003080001430F2006E
:101BCC000130F30071080C3E840072088000730829
:101BDC00840A8000840371081A3E8400033080005C
:101BEC00840A0030800008001E3083120313CB00DF
:101BFC004B08E00083160313AA01AB014F3084009D
:101C0C00AC3083120313CB000408CC001130CD0090
:101C1C004B08840083170008CE00CB0A4C088400C4
:101C2C0083134E088000CC0ACD0B0E2E0A168A1593
:101C3C0048260A128A15C83083120313CB004B08AE
:101C4C00F0009030CC004C08F100AC300A128A1530
:101C5C0040240A128A15003083120313A9000030A5
:101C6C00A8002530A7008030A6000A168A115D2036
:101C7C000A128A15831603138801051470308F001D
:101C8C003F30920007309C008B01831203139B01A1
:101C9C000C309D000430920083160313871601301C
:101CAC0083120313CB00003010190130013E602E5B
:101CBC000310CB0DFF3E031D5E2E0130CC00003017
:101CCC0090180130013E6C2E0310CC0DFF3E031D0D
:101CDC006A2E0130CD00003010180130013E782EF4
:101CEC000310CD0DFF3E031D762E4D084C044B0406
:101CFC00CE004E0890040130CB000030881B013020
:101D0C00013E8A2E0310CB0DFF3E031D882E4B087F
:101D1C00CC004C0888048F018E019B011230E70027
:101D2C008330E8003A30E9000030E1008030E20016
:101D3C003F30E3000030E4008030E5003F30E60047
:101D4C0083160313A001A101A601A701A201A301FF
:101D5C00A401A5011E3083120313ED000030EE0028
:101D6C009B01831203130F0883160313AB0083121A
:101D7C0003130E0883160313AA002B0883120313F4
:101D8C00AA00831603132A0883120313A900AC308C
:101D9C00CB004B08AB00C830CC004C08AC009030EA
:101DAC00CD004D08AD000A168A11D1200A128A15F1
:101DBC00831603132A0983120313CB008316031310
:101DCC002B0983120313CC00CB0A0319CC0A6D0820
:101DDC004B0783160313A800831203136E08031812
:101DEC006E0A4C0783160313A9002808290403194B
:101DFC00B22F2908A1002808A00028082607A60051
:101E0C0029080318290A2707A700A201A301210802
:101E1C00F9002008F8000A168A1580260A128A157D
:101E2C00780883120313A3007908A4007A08A5008C
:101E3C006708A0006808A1006908A2000A168A11A8
:101E4C00EC220A128A15831203132008B30021080E
:101E5C00B4002208B500831603132708F9002608DE
:101E6C00F8000A168A1580260A128A157808831239
:101E7C000313A3007908A4007A08A5006108A00048
:101E8C006208A1006308A2000A168A11EC220A1249
:101E9C008A15831203132008B0002108B100220810
:101EAC00B2000A168A11BF230A128A158312031371
:101EBC003008EA003108EB003208EC006A08B30085
:101ECC006B08B4006C08B500831603132308F900E3
:101EDC002208F8000A168A1580260A128A15780834
:101EEC0083120313A3007908A4007A08A5006408E0
:101EFC00A0006508A1006608A2000A168A11EC224F
:101F0C000A128A15831203132008B0002108B100AD
:101F1C002208B2000A168A11BF230A128A158312EC
:101F2C0003133008BD003108BE003208BF000A168A
:101F3C008A115E220A128A15831203133E08831635
:101F4C000313A500831203133D0883160313A40087
:101F5C002408831203139B0083121B08CB00CC01B3
:101F6C004B08F8004C08F9000A30FA000030FB006E
:101F7C004F300A168A1594270A128A154F300A1602
:101F8C008A1561260A128A150A300A168A152D2618
:101F9C000A128A15831603132B08F9002A08F80075
:101FAC000A30FA000030FB004F300A168A159427CD
:101FBC000A128A154F300A168A1561260A128A15DA
:101FCC000A300A168A152D260A128A158312031353
:101FDC008F018E01073083120313CD001730CC0014
:101FEC006930CB00CB0BF82FCC0BF82FCD0BF82F87
:041FFC00FF2FB72ECE
:10200800F601F11F0E28F009F109F00A0319F10A87
:10201800F601F60AF31F1928F209F309F20A03195F
:10202800F30A0130F4007408F606F701F8017008A5
:10203800710403195028F501F50AF11B2F28013006
:102048000310F00DF10DFF3E031D24280130F400AC
:102058007408F507212801300310F70DF80DFF3E2D
:10206800031D302871087302031D3C287008720292
:10207800031C45287008F2027108031CF303F302DD
:10208800771401300310F10CF00CFF3E031D4628B5
:102098000130F502031D2F28760803195828F7097F
:1020A800F809F70A0319F80A7808F1007708F00028
:1020B8000800831203132608AA002708AB00280883
:1020C800AC002908AD0004300310AA0DAB0DAC0D0F
:1020D800AD0DFF3E031D68282D08F3002C08F20003
:1020E8002B08F1002A08F0000030AE001230AF00D3
:1020F8007A30B0000030B1002608B2002708B300DB
:102108002808B4002908B50004300310B20DB30D37
:10211800B40DB50DFF3E031D8928B209B309B409F2
:10212800B509B20A0319B30A0319B40A0319B50A9F
:102138003208AE0733080318330FA328A428AF07C3
:1021480034080318340FA928AA28B007350803183B
:10215800350AB1073108F7003008F6002F08F500F6
:102168002E08F4000A128A1517207108FA00700860
:10217800F9008316031318157908990018128312A9
:10218800031398178316031387170717831203136C
:10219800181683160313981608006430F0000030F0
:1021A800F100831203132A08F3002908F2000A1623
:1021B8008A1104200A168A117108FA007008F900B9
:1021C800831203132D08FB000130FC000A168A1144
:1021D800D9250A168A116430F0000030F100831204
:1021E80003132A08F3002908F2000A168A15DD26C7
:1021F8000A168A11710883120313AA007008A9002D
:102208000A30F0000030F1002A08F3002908F20033
:102218000A168A1104200A168A117108FA00700831
:10222800F900831203132C08FB000030FC000A1687
:102238008A11D9250A168A110A30F0000030F100F7
:10224800831203132A08F3002908F2000A168A15D4
:10225800DD260A168A11710883120313AA00700872
:10226800A900831203179A15831203132A08FA0088
:102278002908F9002B08FB000030FC000A168A1117
:10228800D92508000310A30DA40DA20B4629A30904
:10229800A40908307B07A5007C080318013EA600A6
:1022A800250884008317261C83130008A700840AC6
:1022B8000008A800270884008317281C8313230814
:1022C8008005840A2408800518307B07A0007C0854
:1022D8000318013EA100200884008317211C8313E2
:1022E800000AA2000130A3000030A4007E290310D8
:1022F800A30DA40DA20B7B29A309A4090A307B070F
:10230800A5007C080318013EA60025088400831751
:10231800261C83130008A700840A0008A8002708C1
:1023280084008317281C831323088005840A240843
:1023380080051A307B07A0007C080318013EA10025
:10234800200884008317211C8313000AA20001308F
:10235800A3000030A400B3290310A30DA40DA20B01
:10236800B0290C307B07A5007C080318013EA600A5
:10237800250884008317261C83130008A700840AF5
:102388000008A800270884008317281C8313230843
:102398008004840A2408800408000310A30DA40DF7
:1023A800A20BD129A309A40908307B07A5007C0842
:1023B8000318013EA600250884008317261C8313F2
:1023C8000008A700840A0008A800270884008317CB
:1023D800281C831323088005840A240880051830E4
:1023E8007B07A0007C080318013EA1002008840098
:1023F8008317211C8313000AA2000130A3000030B8
:10240800A400092A0310A30DA40DA20B062AA309F0
:10241800A4090A307B07A5007C080318013EA60022
:10242800250884008317261C83130008A700840A44
:102438000008A800270884008317281C8313230892
:102448008005840A240880051A307B07A0007C08D0
:102458000318013EA100200884008317211C831360
:10246800000AA2000130A3000030A4003E2A031095
:10247800A30DA40DA20B3B2AA309A4090C307B07CA
:10248800A5007C080318013EA600250884008317D0
:10249800261C83130008A700840A0008A800270840
:1024A80084008317281C831323088005840A2408C2
:1024B80080050800831203133D08C1003E08C200CE
:1024C8003F08C3000310420D430DC4004408CA006E
:1024D8004A08031D782A0030C0000030BF000030D1
:1024E800BE000030BD0008003D08C1003E08C20023
:1024F8003F08C30017300310C30CC20CC10CFF3EC9
:10250800031D7F2A4108C4004408C500BE17FF30D8
:10251800BD05FF30BE050030BF053D08C6003E08BA
:10252800C7003F08C800C9018E30CA02CA1FBA2AAC
:102538004A08803A8F3E0318AA2A0030C0000030AB
:10254800BF000030BE000030BD000800013003109D
:10255800C90CC80CC70CC60CFF3E031DAB2A0130C2
:10256800C1004108CA070319D52AAA2A18304A0205
:10257800031CD22A0030C0000030BF000030BE006B
:102588000030BD0008000130C1000310C60DC70DA2
:10259800C80DC90DC10BC92A0130CA024A08031D5A
:1025A800C72A45080319E32AC609C709C809C9097A
:1025B800C60A0319C70A0319C80A0319C90A490828
:1025C800C0004808BF004708BE004608BD00080014
:1025D800831203132008A6002108A7002208A800D8
:1025E8000310270D280DA9002908AA002A08031D91
:1025F800042B0030A0000030A1000030A200080029
:102608002308A6002408A7002508A8000310270D02
:10261800280DA9002908AF002F08031D1A2B003028
:10262800A0000030A1000030A20008002F087B3E67
:10263800A6002608AA072008A6002108A700220845
:10264800A80010300310A80CA70CA60CFF3E031D11
:10265800262B2608A9002908AF002308A60024086D
:10266800A7002508A80010300310A80CA70CA60C7A
:10267800FF3E031D382B2608A9002908AF06803025
:10268800A6002608AF05A117A417FF30A305FF3041
:10269800A4050030A5050030AB000030AC000030C8
:1026A800AD000730A6002608AE00201C692B2308C1
:1026B800AB07240803110318240A031DAC072508D7
:1026C80003110318250A031DAD0701300310A20CDE
:1026D800A10CA00CFF3E031D6A2B01300310A30DB3
:1026E800A40DA50DFF3E031D722B0130AE02031D84
:1026F800592B0930A6002608AE00201C912B230870
:10270800AB07240803110318240A031DAC07250886
:1027180003110318250A031DAD0701300310A20C8D
:10272800A10CA00CFF3E031D922B01300310AD0C31
:10273800AC0CAB0CFF3E031D9A2B0130AE02031DFF
:10274800812B2B08F0002C08F1002D08F2002A0834
:10275800A6002608F3002F08A7002708F4000A1689
:102768008A152827700883120313A0007108A10096
:102778007208A2000800831203133008B60031085B
:10278800B7003208B8000310370D380DB900390802
:10279800BC003308B6003408B7003508B800031089
:1027A800370D380DB9003908BB003C080319E82B70
:1027B8003B083C020318EF2B3C03FF3A3B07B600EB
:1027C80019303602031CEF2B3308B0003408B1006F
:1027D8003508B20008003B08031908003C083B0212
:1027E8000318FE2B3B03FF3A3C07B60019303602AC
:1027F800031808000630B6003608BA00B21BBA172C
:10280800B51B3A17B117FF30B005FF30B1050030DE
:10281800B205B417FF30B305FF30B4050030B50575
:102828003B083C0203183E2C01300310B30DB40DD5
:10283800B50DFF3E031D192C0130BB023B083C06B9
:102848000319392C0130BA023A0807390319392C0F
:10285800182C01300310B20CB10CB00CFF3E031D54
:102868002E2C0130B6003608BC073C083B0603197D
:10287800672C2D2C3C083B020318672C01300310F1
:10288800B00DB10DB20DFF3E031D432C0130BC024B
:102898003B083C060319632C0130BA023A08073991
:1028A8000319632C422C01300310B50CB40CB30C83
:1028B800FF3E031D582C0130B6003608BB073C0804
:1028C8003B06031D572CBA1F792CFF30B006FF308A
:1028D800B106FF30B2060130B007003003180130EE
:1028E800B107003003180130B2073A1F8B2CFF30B4
:1028F800B306FF30B406FF30B5060130B307003029
:1029080003180130B407003003180130B507BA01C5
:102918003008B307310803110318310A031DB4073F
:10292800320803110318320A031DB507B51FAE2C70
:10293800FF30B306FF30B406FF30B5060130B307E9
:10294800003003180130B407003003180130B50710
:10295800BA01BA0A3308F0003408F1003508F20069
:102968003C08B6003608F3003A08B7003708F40008
:102978000A168A152827700883120313B0007108F5
:10298800B1007208B20008000E307B0783120313EF
:10299800A0007C080318013EA100200884008317CA
:1029A800211C8313000AA2000130A3000030A400F8
:1029B800E02C0310A30DA40DA20BDD2C7B088400D2
:1029C80083177C1C83130008A500840A0008A6004E
:1029D800250884008317261C831323088004840A8F
:1029E8002408800410307B07A0007C080318013EEF
:1029F800A100200884008317211C8313000AA20069
:102A08000130A3000030A4000C2D0310A30DA40D69
:102A1800A20B092D02307B07A5007C080318013E94
:102A2800A600250884008317261C83130008A70026
:102A3800840A0008A800270884008317281C831329
:102A480023088004840A2408800412307B07A0002D
:102A58007C080318013EA100200884008317211C6C
:102A68008313000AA2000130A3000030A4003F2D08
:102A78000310A30DA40DA20B3C2DA309A409043037
:102A88007B07A5007C080318013EA60025088400E2
:102A98008317261C83130008A700840A0008A800CF
:102AA800270884008317281C831323088005840AB9
:102AB8002408800514307B07A0007C080318013E19
:102AC800A100200884008317211C8313000AA20098
:102AD8000130A3000030A400742D0310A30DA40D31
:102AE800A20B712D06307B07A5007C080318013E58
:102AF800A600250884008317261C83130008A70056
:102B0800840A0008A800270884008317281C831358
:102B180023088004840A2408800416307B07A00058
:102B28007C080318013EA100200884008317211C9B
:102B38008313000AA2000130A3000030A400A72DCF
:102B48000310A30DA40DA20BA42D08307B07A5002C
:102B58007C080318013EA600250884008317261C5C
:102B680083130008A700840A0008A8002708840027
:102B78008317281C831323088004840A24088004EC
:102B880018307B07A0007C080318013EA10020082C
:102B980084008317211C8313000AA2000130A300BC
:102BA8000030A4000A128A15DB290A128A11B52FEF
:102BB8000E307B0783120313A0007C080318013E24
:102BC800A100200884008317211C8313000AA20097
:102BD8000130A3000030A400F42D0310A30DA40DB0
:102BE800A20BF12D7B08840083177C1C831300083B
:102BF800A500840A0008A600250884008317261C5F
:102C0800831323088004840A2408800410307B0777
:102C1800A0007C080318013EA10020088400831747
:102C2800211C8313000AA2000130A3000030A40075
:102C3800202E0310A30DA40DA20B1D2E02307B071E
:102C4800A5007C080318013EA60025088400831708
:102C5800261C83130008A700840A0008A800270878
:102C680084008317281C831323088004840A2408FB
:102C7800800412307B07A0007C080318013EA100E5
:102C8800200884008317211C8313000AA200013046
:102C9800A3000030A400532E0310A30DA40DA20B13
:102CA800502E04307B07A5007C080318013EA600BF
:102CB800250884008317261C83130008A700840AAC
:102CC8000008A800270884008317281C83132308FA
:102CD8008004840A2408800414307B07A0007C0840
:102CE8000318013EA100200884008317211C8313C8
:102CF800000AA2000130A3000030A400862E0310B1
:102D0800A30DA40DA20B832E06307B07A5007C081B
:102D18000318013EA600250884008317261C831388
:102D28000008A700840A0008A80027088400831761
:102D3800281C831323088004840A2408800416307E
:102D48007B07A0007C080318013EA100200884002E
:102D58008317211C8313000AA2000130A30000304E
:102D6800A400B92E0310A30DA40DA20BB62E083093
:102D78007B07A5007C080318013EA60025088400EF
:102D88008317261C83130008A700840A0008A800DC
:102D9800270884008317281C831323088004840AC7
:102DA8002408800418307B07A0007C080318013E23
:102DB800A100200884008317211C8313000AA200A5
:102DC8000130A3000030A4000A128A150D2B0E3022
:102DD8007B0783120313A0007C080318013EA1009F
:102DE800200884008317211C8313000AA2000130E5
:102DF800A3000030A400032F0310A30DA40DA20B01
:102E0800002FA309A4097B08840083177C1C831363
:102E18000008A500840A0008A60025088400831776
:102E2800261C831323088005840A24088005103093
:102E38007B07A0007C080318013EA100200884003D
:102E48008317211C8313000AA2000130A30000305D
:102E5800A400312F0310A30DA40DA20B2E2F0230B6
:102E68007B07A5007C080318013EA60025088400FE
:102E78008317261C83130008A700840A0008A800EB
:102E8800270884008317281C831323088004840AD6
:102E98002408800412307B07A0007C080318013E38
:102EA800A100200884008317211C8313000AA200B4
:102EB8000130A3000030A400642F0310A30DA40D5B
:102EC800A20B612F04307B07A5007C080318013E84
:102ED800A600250884008317261C83130008A70072
:102EE800840A0008A800270884008317281C831375
:102EF80023088004840A2408800414307B07A00077
:102F08007C080318013EA100200884008317211CB7
:102F18008313000AA2000130A3000030A400972FF9
:102F28000310A30DA40DA20B942FA309A409063026
:102F38007B07A5007C080318013EA600250884002D
:102F48008317261C83130008A700840A0008A8001A
:102F5800270884008317281C831323088005840A04
:102F68002408800516307B07A0007C080318013E62
:102F7800A100200884008317211C8313000AA200E3
:102F88000130A3000030A400CC2F0310A30DA40D22
:102F9800A20BC92FA309A40908307B07A5007C0848
:102FA8000318013EA600250884008317261C8313F6
:102FB8000008A700840A0008A800270884008317CF
:102FC800281C831323088005840A240880051830E8
:102FD8007B07A0007C080318013EA100200884009C
:102FE8008317211C8313000AA2000130A3000030BC
:082FF800A4000A128A15A928A1
:103C5A00F00083160313981C2E2E70088312031388
:103C6A00990008007E088A007F08820037260A1613
:103C7A008A158000840A04087D0603190034FF0AA5
:103C8A000319FE0A3B2E4F30831203179C0008309B
:103C9A009D00E1309E0090019101920193019401EF
:103CAA00950196019701980199019A019B0120308B
:103CBA008800933087000800F400F201F3017208CB
:103CCA007407F100710884008313000803190800BF
:103CDA0072087407F10071088400831300080A1639
:103CEA008A152D260A168A150130F2070318F30AD7
:103CFA000030F307642EFD01F91F8A2EF809F9092D
:103D0A00F80A0319F90AFD01FD0A7808F000790892
:103D1A00F100F2018E30FB007B08F3007D08FC0005
:103D2A007C08F4000A168A1528277008F80071081A
:103D3A00F9007208FA000800F501F601700871042A
:103D4A000319D82EF701F70AF11BB72E0130031019
:103D5A00F00DF10DFF3E031DAC2E0130F400740886
:103D6A00F707A92E01300310F50DF60DFF3E031DCE
:103D7A00B82E71087302031DC42E70087202031C48
:103D8A00CD2E7008F2027108031CF303F3027514B6
:103D9A0001300310F10CF00CFF3E031DCE2E013052
:103DAA00F702031DB72E7608F1007508F000080027
:103DBA00F601F31FE72EF209F309F20A0319F30ACF
:103DCA00F601F60AF11FEE2EF009F109F00A0319BD
:103DDA00F10A7008710403191B2FF501F50AF11B8A
:103DEA00022F01300310F00DF10DFF3E031DF72ED7
:103DFA000130F4007408F507F42E71087302031DEC
:103E0A00082F70087202031C102F7008F202710842
:103E1A00031CF303F30201300310F10CF00CFF3E14
:103E2A00031D112F0130F502031D022F7608031915
:103E3A00232FF209F309F20A0319F30A7308F100AE
:103E4A007208F000080073080319302F7208710411
:103E5A007004031D432F0030F0000030F1000030E1
:103E6A00F20008000130F5007508F307013003106D
:103E7A00F20CF10CF00CFF3E031D3C2FFE307205D4
:103E8A0003195E2F372F0130F5007508F30701304B
:103E9A00F007003003180130F10700300318013031
:103EAA00F20701300310F20CF10CF00CFF3E031D77
:103EBA00572FFF30720503196D2F482F0130F30277
:103ECA0001300310F00DF10DF20DFF3E031D662FB8
:103EDA00F11B732F023073020318632F73187B2FA1
:103EEA00FF30F0057F30F105FF30F2050310F30CC7
:103EFA007308F500F601F70110300310F50DF60D01
:103F0A00F70DFF3E031D822F7508F0047608F104B1
:103F1A007708F204740803190800F21708008312DC
:103F2A000313A3007908A1007808A0007B08F10018
:103F3A007A08F0002108F3002008F2000A168A1510
:103F4A00A1260A168A15710883120313A1007008A4
:103F5A00A0000130FC007C08A30720082104031DEF
:103F6A009B2F23088400831380010130A3027B085E
:103F7A00F1007A08F0007908F3007808F2000A12D2
:103F8A008A1103200A168A157008FC007C0883121D
:103F9A000313A2007B08F1007A08F0007908F30005
:103FAA007808F2000A168A15A1260A168A157108D7
:103FBA00F9007008F8000A30831203132202031C66
:103FCA00EA2F0730FC007C08A2073030FC007C088E
:103FDA00A2072208FC00230884007C0883138000BF
:103FEA000130A30278087904031DBC2F0130FC00BC
:063FFA007C08A30708008B
:02400E00F4FFBD
:00000001FF
