:060000000A128A11EF2F25
:10001200F00083160313981C0A2870088312031336
:1000220099000800FD01F91F1D28F809F909F80ACD
:100032000319F90AFD01FD0A7808F0007908F100B8
:10004200F2018E30FB007B08F3007D08FC007C0887
:10005200F4000A168A15B4267008F8007108F9002F
:100062007208FA0008000310A30DA40DA20B342895
:10007200A309A40908307B07A5007C080318013EE8
:10008200A600250884008317261C83130008A700F6
:10009200840A0008A800270884008317281C8313F9
:1000A20023088005840A2408800518307B07A000F5
:1000B2007C080318013EA100200884008317211C3C
:1000C2008313000AA2000130A3000030A4006C28B0
:1000D2000310A30DA40DA20B69280A307B07A5000B
:1000E2007C080318013EA600250884008317261CFD
:1000F20083130008A700840A0008A80027088400C8
:100102008317281C831323088004840A240880048C
:100112001A307B07A0007C080318013EA1002008CA
:1001220084008317211C8313000AA2000130A3005C
:100132000030A4009F280310A30DA40DA20B9C283D
:100142000C307B07A5007C080318013EA600250899
:1001520084008317261C83130008A700840A000862
:10016200A800270884008317281C8313230880040F
:10017200840A2408800408000E307B0783120313CC
:10018200A0007C080318013EA10020088400831708
:10019200211C8313000AA2000130A3000030A40036
:1001A200D5280310A30DA40DA20BD2287B0884002E
:1001B20083177C1C83130008A500840A0008A6008C
:1001C200250884008317261C831323088004840ACD
:1001D2002408800410307B07A0007C080318013E2D
:1001E200A100200884008317211C8313000AA200A7
:1001F2000130A3000030A40001290310A30DA40DB7
:10020200A20BFE28A309A40902307B07A5007C08E3
:100212000318013EA600250884008317261C8313B9
:100222000008A700840A0008A80027088400831792
:10023200281C831323088005840A240880051230B1
:100242007B07A0007C080318013EA100200884005F
:100252008317211C8313000AA2000130A30000307F
:10026200A40036290310A30DA40DA20B33290430D8
:100272007B07A5007C080318013EA6002508840020
:100282008317261C83130008A700840A0008A8000D
:10029200270884008317281C831323088004840AF8
:1002A2002408800414307B07A0007C080318013E58
:1002B200A100200884008317211C8313000AA200D6
:1002C2000130A3000030A40069290310A30DA40D7E
:1002D200A20B662906307B07A5007C080318013EA5
:1002E200A600250884008317261C83130008A70094
:1002F200840A0008A800270884008317281C831397
:1003020023088004840A2408800416307B07A00096
:100312007C080318013EA100200884008317211CD9
:100322008313000AA2000130A3000030A4009C291C
:100332000310A30DA40DA20B992908307B07A50079
:100342007C080318013EA600250884008317261C9A
:1003520083130008A700840A0008A8002708840065
:100362008317281C831323088004840A240880042A
:1003720018307B07A0007C080318013EA10020086A
:1003820084008317211C8313000AA2000130A300FA
:100392000030A400CF290310A30DA40DA20BCC2979
:1003A2000A307B07A5007C080318013EA600250839
:1003B20084008317261C83130008A700840A000800
:1003C200A800270884008317281C831323088004AD
:1003D200840A240880041A307B07A0007C080318D2
:1003E200013EA100200884008317211C8313000A08
:1003F200A2000130A3000030A400022A0310A30DC2
:10040200A40DA20BFF290C307B07A5007C08031862
:10041200013EA600250884008317261C83130008CA
:10042200A700840A0008A800270884008317281C54
:10043200831323088004840A2408800408000E30F1
:100442007B0783120313A0007C080318013EA1005E
:10045200200884008317211C8313000AA2000130A4
:10046200A3000030A400382A0310A30DA40DA20B90
:10047200352A7B08840083177C1C83130008A5009F
:10048200840A0008A600250884008317261C83130B
:1004920023088004840A2408800410307B07A0000B
:1004A2007C080318013EA100200884008317211C48
:1004B2008313000AA2000130A3000030A400642AC2
:1004C2000310A30DA40DA20B612A02307B07A50025
:1004D2007C080318013EA600250884008317261C09
:1004E20083130008A700840A0008A80027088400D4
:1004F2008317281C831323088004840A2408800499
:1005020012307B07A0007C080318013EA1002008DE
:1005120084008317211C8313000AA2000130A30068
:100522000030A400972A0310A30DA40DA20B942A55
:1005320004307B07A5007C080318013EA6002508AD
:1005420084008317261C83130008A700840A00086E
:10055200A800270884008317281C8313230880041B
:10056200840A2408800414307B07A0007C08031846
:10057200013EA100200884008317211C8313000A76
:10058200A2000130A3000030A400CA2A0310A30D68
:10059200A40DA20BC72AA309A40906307B07A50054
:1005A2007C080318013EA600250884008317261C38
:1005B20083130008A700840A0008A8002708840003
:1005C2008317281C831323088005840A24088005C6
:1005D20016307B07A0007C080318013EA10020080A
:1005E20084008317211C8313000AA2000130A30098
:1005F2000030A400FF2A0310A30DA40DA20BFC2AB5
:10060200A309A40908307B07A5007C080318013E52
:10061200A600250884008317261C83130008A70060
:10062200840A0008A800270884008317281C831363
:1006320023088005840A2408800518307B07A0005F
:100642007C080318013EA100200884008317211CA6
:100652008313000AA2000130A3000030A400342B4F
:100662000310A30DA40DA20B312BA309A4090A3078
:100672007B07A5007C080318013EA600250884001C
:100682008317261C83130008A700840A0008A80009
:10069200270884008317281C831323088005840AF3
:1006A200240880051A307B07A0007C080318013E4D
:1006B200A100200884008317211C8313000AA200D2
:1006C2000130A3000030A400692B0310A30DA40D78
:1006D200A20B662BA309A4090C307B07A5007C089A
:1006E2000318013EA600250884008317261C8313E5
:1006F2000008A700840A0008A800270884008317BE
:10070200281C831323088005840A24088005080016
:100712000E307B0783120313A0007C080318013EEE
:10072200A100200884008317211C8313000AA20061
:100732000130A3000030A400A12B0310A30DA40DCF
:10074200A20B9E2B7B08840083177C1C831300085A
:10075200A500840A0008A600250884008317261C29
:10076200831323088004840A2408800410307B0742
:10077200A0007C080318013EA10020088400831712
:10078200211C8313000AA2000130A3000030A40040
:10079200CD2B0310A30DA40DA20BCA2B02307B0795
:1007A200A5007C080318013EA600250884008317D3
:1007B200261C83130008A700840A0008A800270843
:1007C20084008317281C831323088004840A2408C6
:1007D200800412307B07A0007C080318013EA100B0
:1007E200200884008317211C8313000AA200013011
:1007F200A3000030A400002C0310A30DA40DA20B33
:10080200FD2B04307B07A5007C080318013EA600DF
:10081200250884008317261C83130008A700840A76
:100822000008A800270884008317281C83132308C4
:100832008004840A2408800414307B07A0007C080A
:100842000318013EA100200884008317211C831392
:10085200000AA2000130A3000030A400332C0310D0
:10086200A30DA40DA20B302C06307B07A5007C083B
:100872000318013EA600250884008317261C831353
:100882000008A700840A0008A8002708840083172C
:10089200281C831323088004840A24088004163049
:1008A2007B07A0007C080318013EA10020088400F9
:1008B2008317211C8313000AA2000130A300003019
:1008C200A400662C0310A30DA40DA20B632C083008
:1008D2007B07A5007C080318013EA60025088400BA
:1008E2008317261C83130008A700840A0008A800A7
:1008F200270884008317281C831323088004840A92
:100902002408800418307B07A0007C080318013EED
:10091200A100200884008317211C8313000AA2006F
:100922000130A3000030A400992C0310A30DA40DE4
:10093200A20B962C0A307B07A5007C080318013E07
:10094200A600250884008317261C83130008A7002D
:10095200840A0008A800270884008317281C831330
:1009620023088004840A240880041A307B07A0002C
:100972007C080318013EA100200884008317211C73
:100982008313000AA2000130A3000030A400CC2C83
:100992000310A30DA40DA20BC92C0C307B07A500DC
:1009A2007C080318013EA600250884008317261C34
:1009B20083130008A700840A0008A80027088400FF
:1009C2008317281C831323088004840A24088004C4
:1009D20008000E307B0783120313A0007C08031863
:1009E200013EA100200884008317211C8313000A02
:1009F200A2000130A3000030A400022D0310A30DB9
:100A0200A40DA20BFF2C7B08840083177C1C83138C
:100A12000008A500840A0008A600250884008317A0
:100A2200261C831323088004840A240880041030BF
:100A32007B07A0007C080318013EA1002008840067
:100A42008317211C8313000AA2000130A300003087
:100A5200A4002E2D0310A30DA40DA20B2B2D0230EA
:100A62007B07A5007C080318013EA6002508840028
:100A72008317261C83130008A700840A0008A80015
:100A8200270884008317281C831323088004840A00
:100A92002408800412307B07A0007C080318013E62
:100AA200A100200884008317211C8313000AA200DE
:100AB2000130A3000030A400612D0310A30DA40D8A
:100AC200A20B5E2D04307B07A5007C080318013EB3
:100AD200A600250884008317261C83130008A7009C
:100AE200840A0008A800270884008317281C83139F
:100AF20023088004840A2408800414307B07A000A1
:100B02007C080318013EA100200884008317211CE1
:100B12008313000AA2000130A3000030A400942D28
:100B22000310A30DA40DA20B912D06307B07A50087
:100B32007C080318013EA600250884008317261CA2
:100B420083130008A700840A0008A800270884006D
:100B52008317281C831323088004840A2408800432
:100B620016307B07A0007C080318013EA100200874
:100B720084008317211C8313000AA2000130A30002
:100B82000030A400C72D0310A30DA40DA20BC42D89
:100B9200A309A40908307B07A5007C080318013EBD
:100BA200A600250884008317261C83130008A700CB
:100BB200840A0008A800270884008317281C8313CE
:100BC20023088005840A2408800518307B07A000CA
:100BD2007C080318013EA100200884008317211C11
:100BE2008313000AA2000130A3000030A400FC2DF0
:100BF2000310A30DA40DA20BF92D0A307B07A5004B
:100C02007C080318013EA600250884008317261CD1
:100C120083130008A700840A0008A800270884009C
:100C22008317281C831323088004840A2408800461
:100C32001A307B07A0007C080318013EA10020089F
:100C420084008317211C8313000AA2000130A30031
:100C52000030A4002F2E0310A30DA40DA20B2C2EE6
:100C62000C307B07A5007C080318013EA60025086E
:100C720084008317261C83130008A700840A000837
:100C8200A800270884008317281C831323088004E4
:100C9200840A2408800408000E307B0783120313A1
:100CA200A0007C080318013EA100200884008317DD
:100CB200211C8313000AA2000130A3000030A4000B
:100CC200652E0310A30DA40DA20B622E7B088400D7
:100CD20083177C1C83130008A500840A0008A60061
:100CE200250884008317261C831323088004840AA2
:100CF2002408800410307B07A0007C080318013E02
:100D0200A100200884008317211C8313000AA2007B
:100D12000130A3000030A400912E0310A30DA40DF6
:100D2200A20B8E2EA309A40902307B07A5007C0822
:100D32000318013EA600250884008317261C83138E
:100D42000008A700840A0008A80027088400831767
:100D5200281C831323088005840A24088005123086
:100D62007B07A0007C080318013EA1002008840034
:100D72008317211C8313000AA2000130A300003054
:100D8200A400C62E0310A30DA40DA20BC32EA3090B
:100D9200A40904307B07A5007C080318013EA600C5
:100DA200250884008317261C83130008A700840AE1
:100DB2000008A800270884008317281C831323082F
:100DC2008005840A2408800514307B07A0007C0873
:100DD2000318013EA100200884008317211C8313FD
:100DE200000AA2000130A3000030A400FB2E031071
:100DF200A30DA40DA20BF82E06307B07A5007C08DC
:100E02000318013EA600250884008317261C8313BD
:100E12000008A700840A0008A80027088400831796
:100E2200281C831323088004840A240880041630B3
:100E32007B07A0007C080318013EA1002008840063
:100E42008317211C8313000AA2000130A300003083
:100E5200A4002E2F0310A30DA40DA20B2B2F0830DC
:100E62007B07A5007C080318013EA6002508840024
:100E72008317261C83130008A700840A0008A80011
:100E8200270884008317281C831323088004840AFC
:100E92002408800418307B07A0007C080318013E58
:100EA200A100200884008317211C8313000AA200DA
:100EB2000130A3000030A400612F0310A30DA40D84
:100EC200A20B5E2F0A307B07A5007C080318013EA7
:100ED200A600250884008317261C83130008A70098
:100EE200840A0008A800270884008317281C83139B
:100EF20023088004840A240880041A307B07A00097
:100F02007C080318013EA100200884008317211CDD
:100F12008313000AA2000130A3000030A400942F22
:100F22000310A30DA40DA20B912FA309A4090C3049
:100F32007B07A5007C080318013EA6002508840053
:100F42008317261C83130008A700840A0008A80040
:100F5200270884008317281C831323088005840A2A
:100F62002408800508007A08003A0319B92FDC2FFB
:100F72007908003A0319DD2F013A0319E02F033AE9
:100F82000319E32F013A0319E62F073A0319E92F50
:100F9200013A0319EC2F033A0319BD28013A031948
:100FA200202A0F3A0319892B013A0319EA2C4A3AEB
:100FB20003194D2EDC2F08000A168A11F12E0A128F
:100FC2008A15662D0A168A11DD2D0A128A15012B41
:100FD2000A128A1564280A128A15CD298316031368
:100FE200DA01DB01DC01DD01DE01DF01E001E1010B
:0E0FF200E201E301E40183010A168A11D42B07
:10101600F601F11F1528F009F109F00A0319F10A82
:10102600F601F60AF31F2028F209F309F20A03195A
:10103600F30A0130F4007408F606F701F8017008A7
:10104600710403195728F501F50AF11B36280130FA
:101056000310F00DF10DFF3E031D2B280130F400A7
:101066007408F507282801300310F70DF80DFF3E28
:10107600031D372871087302031D43287008720286
:10108600031C4C287008F2027108031CF303F302D8
:10109600771401300310F10CF00CFF3E031D4D28B0
:1010A6000130F502031D3628760803195F28F70973
:1010B600F809F70A0319F80A7808F1007708F0002A
:1010C60008000E307B0783120313A0007C08031868
:1010D600013EA100200884008317211C8313000A07
:1010E600A2000130A3000030A4007C280310A30D49
:1010F600A40DA20B7928A309A4097B0884008317F1
:101106007C1C83130008A500840A0008A600250895
:1011160084008317261C831323088005840A240869
:10112600800510307B07A0007C080318013EA10053
:10113600200884008317211C8313000AA2000130B3
:10114600A3000030A400AA280310A30DA40DA20B2F
:10115600A72802307B07A5007C080318013EA600DD
:10116600250884008317261C83130008A700840A19
:101176000008A800270884008317281C8313230867
:101186008004840A2408800412307B07A0007C08AF
:101196000318013EA100200884008317211C831335
:1011A600000AA2000130A3000030A400DD280310CD
:1011B600A30DA40DA20BDA2804307B07A5007C083A
:1011C6000318013EA600250884008317261C8313F6
:1011D6000008A700840A0008A800270884008317CF
:1011E600281C831323088004840A240880041430EE
:1011F6007B07A0007C080318013EA100200884009C
:101206008317211C8313000AA2000130A3000030BB
:10121600A40010290310A30DA40DA20B0D29A309E8
:10122600A40906307B07A5007C080318013EA6002A
:10123600250884008317261C83130008A700840A48
:101246000008A800270884008317281C8313230896
:101256008005840A2408800516307B07A0007C08D8
:101266000318013EA100200884008317211C831364
:10127600000AA2000130A3000030A4004529031093
:10128600A30DA40DA20B4229A309A40908307B07CC
:10129600A5007C080318013EA600250884008317D4
:1012A600261C83130008A700840A0008A800270844
:1012B60084008317281C831323088005840A2408C6
:1012C600800518307B07A0007C080318013EA100AA
:1012D600200884008317211C8313000AA200013012
:1012E600A3000030A4000A128A157C290310A30D5E
:1012F600A40DA20B79290A307B07A5007C080318E8
:10130600013EA600250884008317261C83130008C7
:10131600A700840A0008A800270884008317281C51
:10132600831323088004840A240880041A307B0768
:10133600A0007C080318013EA10020088400831742
:10134600211C8313000AA2000130A3000030A40070
:10135600AF290310A30DA40DA20BAC290C307B07FB
:10136600A5007C080318013EA60025088400831703
:10137600261C83130008A700840A0008A800270873
:1013860084008317281C831323088004840A2408F6
:10139600800408000E307B0783120313A0007C082C
:1013A6000318013EA100200884008317211C831323
:1013B600000AA2000130A3000030A400E5290310B2
:1013C600A30DA40DA20BE2297B08840083177C1CC5
:1013D60083130008A500840A0008A60025088400D7
:1013E6008317261C831323088004840A2408800498
:1013F60010307B07A0007C080318013EA1002008DE
:1014060084008317211C8313000AA2000130A30065
:101416000030A400112A0310A30DA40DA20B0E2A5E
:10142600A309A40902307B07A5007C080318013E26
:10143600A600250884008317261C83130008A7002E
:10144600840A0008A800270884008317281C831331
:1014560023088005840A2408800512307B07A00033
:101466007C080318013EA100200884008317211C74
:101476008313000AA2000130A3000030A400462A0C
:101486000310A30DA40DA20B432A04307B07A5006D
:101496007C080318013EA600250884008317261C35
:1014A60083130008A700840A0008A8002708840000
:1014B6008317281C831323088004840A24088004C5
:1014C60014307B07A0007C080318013EA100200809
:1014D60084008317211C8313000AA2000130A30095
:1014E6000030A400792A0310A30DA40DA20B762ABE
:1014F60006307B07A5007C080318013EA6002508D8
:1015060084008317261C83130008A700840A00089A
:10151600A800270884008317281C83132308800447
:10152600840A2408800416307B07A0007C08031870
:10153600013EA100200884008317211C8313000AA2
:10154600A2000130A3000030A4000A128A11372835
:101556000310A30DA40DA20BAB2AA309A4090A30FC
:101566007B07A5007C080318013EA6002508840019
:101576008317261C83130008A700840A0008A80006
:10158600270884008317281C831323088005840AF0
:10159600240880051A307B07A0007C080318013E4A
:1015A600A100200884008317211C8313000AA200CF
:1015B6000130A3000030A400E32A0310A30DA40DFC
:1015C600A20BE02A0C307B07A5007C080318013E1D
:1015D600A600250884008317261C83130008A7008D
:1015E600840A0008A800270884008317281C831390
:1015F60023088004840A2408800408000E307B0730
:1016060083120313A0007C080318013EA1002008E2
:1016160084008317211C8313000AA2000130A30053
:101626000030A400192B0310A30DA40DA20B162B3A
:101636007B08840083177C1C83130008A500840A9A
:101646000008A600250884008317261C8313230898
:101656008004840A2408800410307B07A0007C08DC
:101666000318013EA100200884008317211C831360
:10167600000AA2000130A3000030A400452B03108D
:10168600A30DA40DA20B422B02307B07A5007C08FC
:101696000318013EA600250884008317261C831321
:1016A6000008A700840A0008A800270884008317FA
:1016B600281C831323088004840A2408800412301B
:1016C6007B07A0007C080318013EA10020088400C7
:1016D6008317211C8313000AA2000130A3000030E7
:1016E600A400782B0310A30DA40DA20B752B0430B8
:1016F6007B07A5007C080318013EA6002508840088
:101706008317261C83130008A700840A0008A80074
:10171600270884008317281C831323088004840A5F
:101726002408800414307B07A0007C080318013EBF
:10173600A100200884008317211C8313000AA2003D
:101746000130A3000030A400AB2B0310A30DA40DA1
:10175600A20BA82B06307B07A5007C080318013EC8
:10176600A600250884008317261C83130008A700FB
:10177600840A0008A800270884008317281C8313FE
:1017860023088004840A2408800416307B07A000FE
:101796007C080318013EA100200884008317211C41
:1017A6008313000AA2000130A3000030A4000A1629
:1017B6008A11D128831203133F09C1004009C200D0
:1017C600C10A0319C20A3D084107C7003E080318AB
:1017D6003E0A4207C800470848040319082D48086E
:1017E60083160313E20083120313470883160313B9
:1017F600E100831203134708831603135F07DF0014
:101806008312031348080318480A83160313600754
:10181600E000630983120313C100831603136409EE
:1018260083120313C200C10A0319C20A47084107FB
:1018360083160313DD008312031348080318480AAE
:10184600420783160313DE00831203134808831628
:101856000313E40083120313470883160313E300FC
:101866006B0883120313A000831603136C088312FC
:101876000313A100831603136D0883120313A2003A
:10188600831603136008F9005F08F8000A128A112C
:1018960013200A128A15780883120313A300790805
:1018A600A4007A08A5000A168A1101230A128A15CD
:1018B600831203132008B0002108B1002208B200E9
:1018C60083160313650883120313A00083160313FC
:1018D600660883120313A100831603136708831295
:1018E6000313A200831603136208F9006108F800C7
:1018F6000A128A1113200A128A1578088312031312
:10190600A3007908A4007A08A5000A168A11012303
:101916000A128A15831203132008B3002108B400A3
:101926002208B5000A168A11D4240A128A158312CF
:1019360003133008C4003108C5003208C6008316F8
:101946000313680883120313A000831603136908A0
:1019560083120313A100831603136A088312031369
:10196600A200831603135E08F9005D08F8000A1248
:101976008A1113200A128A15780883120313A3000A
:101986007908A4007A08A5000A168A1101230A120A
:101996008A15831203132008B0002108B10022081B
:1019A600B2004408B3004508B4004608B5000A165C
:1019B6008A11D4240A128A15831203133008831657
:1019C6000313DA0083120313310883160313DB00B3
:1019D60083120313320883160313DC005A08F0003F
:1019E6005B08F1005C08F2000A168A11592170089A
:1019F60083120313C10041089B071B08C200C301E1
:101A06004208BD004308BE0008001B08C100C20111
:101A16004108BD004208BE0008000310A30DA40D36
:101A2600A20B102D0A307B07A5007C080318013E87
:101A3600A600250884008317261C83130008A70028
:101A4600840A0008A800270884008317281C83132B
:101A560023088004840A240880041A307B07A00027
:101A66007C080318013EA100200884008317211C6E
:101A76008313000AA2000130A3000030A400462D03
:101A86000310A30DA40DA20B432DA309A4090C302A
:101A96007B07A5007C080318013EA60025088400E4
:101AA6008317261C83130008A700840A0008A800D1
:101AB600270884008317281C831323088005840ABB
:101AC6002408800508000E307B0783120313A0004C
:101AD6007C080318013EA100200884008317211CFE
:101AE6008313000AA2000130A3000030A4007E2D5B
:101AF6000310A30DA40DA20B7B2DA309A4097B083B
:101B0600840083177C1C83130008A500840A000840
:101B1600A600250884008317261C83132308800546
:101B2600840A2408800510307B07A0007C0803186F
:101B3600013EA100200884008317211C8313000A9C
:101B4600A2000130A3000030A400AC2D0310A30DA9
:101B5600A40DA20BA92D02307B07A5007C08031853
:101B6600013EA600250884008317261C831300085F
:101B7600A700840A0008A800270884008317281CE9
:101B8600831323088004840A2408800412307B0708
:101B9600A0007C080318013EA100200884008317DA
:101BA600211C8313000AA2000130A3000030A40008
:101BB600DF2D0310A30DA40DA20BDC2D04307B0733
:101BC600A5007C080318013EA6002508840083179B
:101BD600261C83130008A700840A0008A80027080B
:101BE60084008317281C831323088004840A24088E
:101BF600800414307B07A0007C080318013EA10076
:101C0600200884008317211C8313000AA2000130D8
:101C1600A3000030A400122E0310A30DA40DA20BE6
:101C26000F2EA309A40906307B07A5007C0803181C
:101C3600013EA600250884008317261C831300088E
:101C4600A700840A0008A800270884008317281C18
:101C5600831323088005840A2408800516307B0731
:101C6600A0007C080318013EA10020088400831709
:101C7600211C8313000AA2000130A3000030A40037
:101C86000A168A11E829F4001230F2000130F30036
:101C9600740884007208831380007308840A800025
:101CA600840374080E3E840006308000840A0030E7
:101CB60080001230F2000130F3007408023E840006
:101CC600720880007308840A800084037408103E3A
:101CD600840007308000840A003080001830F2004B
:101CE6000130F3007408043E840072088000730813
:101CF600840A800084037408123E84000730800042
:101D0600840A003080001B30F2000130F3007408B2
:101D1600063E8400720880007308840A80008403EB
:101D26007408143E840006308000840A0030800067
:101D36001830F2000130F3007408083E840072087F
:101D460080007308840A800084037408163E8400A9
:101D560006308000840A003080001530F200013021
:101D6600F30074080A3E8400720880007308840A2F
:101D7600800084037408183E840006308000840ABC
:101D8600003080001530F2000130F30074080C3E7C
:101D96008400720880007308840A80008403740833
:101DA6001A3E840007308000840A0030800010301C
:101DB600F2000130F3007008840072088000730896
:101DC600840A8000840370080E3E8400063080007A
:101DD600840A003080001230F2000130F3007008EF
:101DE600023E8400720880007308840A800084031F
:101DF6007008103E840005308000840A00308000A0
:101E06001830F2000130F3007008043E84007208B6
:101E160080007308840A800084037008123E8400E0
:101E260005308000840A003080001930F20001304D
:101E3600F3007008063E8400720880007308840A66
:101E4600800084037008143E840006308000840AF3
:101E5600003080001630F2000130F3007008083EB2
:101E66008400720880007308840A80008403700866
:101E7600163E840006308000840A0030800013304D
:101E8600F2000130F30070080A3E840072088000F8
:101E96007308840A800084037008183E84000630A4
:101EA6008000840A003080001530F2000130F30013
:101EB60070080C3E8400720880007308840A800053
:101EC600840370081A3E840005308000840A0030BE
:101ED60080001030F2000130F300710884007208AF
:101EE600831780007308840A8000840371080E3EFD
:101EF600840003308000840A003080001130F20034
:101F06000130F3007108023E8400720880007308F5
:101F1600840A800084037108103E84000330800028
:101F2600840A003080001730F2000130F300710897
:101F3600043E8400720880007308840A80008403CB
:101F46007108123E840003308000840A003080004D
:101F56001930F2000130F3007108063E8400720861
:101F660080007308840A800084037108143E84008C
:101F760003308000840A003080001630F200013001
:101F8600F3007108083E8400720880007308840A12
:101F9600800084037108163E840003308000840AA2
:101FA600003080001330F2000130F30071080A3E61
:101FB6008400720880007308840A80008403710814
:101FC600183E840003308000840A003080001430FC
:101FD600F2000130F30071080C3E840072088000A4
:101FE6007308840A8000840371081A3E8400033053
:0A1FF6008000840A0030800008001B
:10201C00F601F31F1828F209F309F20A0319F30A5F
:10202C00F601F60AF11F1F28F009F109F00A03194D
:10203C00F10A7008710403194C28F501F50AF11B1B
:10204C00332801300310F00DF10DFF3E031D28283D
:10205C000130F4007408F507252871087302031D7C
:10206C00392870087202031C41287008F2027108AA
:10207C00031CF303F30201300310F10CF00CFF3ED0
:10208C00031D42280130F502031D3328760803197D
:10209C005428F209F309F20A0319F30A7308F10040
:1020AC007208F00008006430F0000030F100831278
:1020BC0003132A08F3002908F2000A128A150B20D0
:1020CC000A168A117108FA007008F90083120313BA
:1020DC002D08FB000130FC000A168A11EE260A16A8
:1020EC008A116430F0000030F100831203132A08C7
:1020FC00F3002908F2000A168A110E200A168A111A
:10210C00710883120313AA007008A9000A30F000AA
:10211C000030F1002A08F3002908F2000A128A158F
:10212C000B200A168A117108FA007008F900831244
:10213C0003132C08FB000030FC000A168A11EE2653
:10214C000A168A110A30F0000030F10083120313D2
:10215C002A08F3002908F2000A168A110E200A1622
:10216C008A11710883120313AA007008A900831244
:10217C0003179A15831203132A08FA002908F90089
:10218C002B08FB000030FC000A168A11EE26080012
:10219C000310A30DA40DA20BCE28A309A40908308B
:1021AC007B07A5007C080318013EA60025088400C7
:1021BC008317261C83130008A700840A0008A800B4
:1021CC00270884008317281C831323088005840A9E
:1021DC002408800518307B07A0007C080318013EFA
:1021EC00A100200884008317211C8313000AA2007D
:1021FC000130A3000030A40006290310A30DA40D88
:10220C00A20B0329A309A4090A307B07A5007C08AB
:10221C000318013EA600250884008317261C83138F
:10222C000008A700840A0008A80027088400831768
:10223C00281C831323088005840A240880051A307F
:10224C007B07A0007C080318013EA1002008840035
:10225C008317211C8313000AA2000130A300003055
:10226C00A4003B290310A30DA40DA20B38290C309C
:10227C007B07A5007C080318013EA60025088400F6
:10228C008317261C83130008A700840A0008A800E3
:10229C00270884008317281C831323088004840ACE
:1022AC002408800408007008F4007108F500720816
:1022BC00F6000310750D760DF7007708FD007D080C
:1022CC00031D71290030F3000030F2000030F100E2
:1022DC000030F00008007008F4007108F500720876
:1022EC00F60017300310F60CF50CF40CFF3E031D32
:1022FC0078297408F7007708F800F117FF30F0051B
:10230C00FF30F1050030F2057008F9007108FA0091
:10231C007208FB00FC018E30FD02FD1FB3297D0805
:10232C00803A8F3E0318A3290030F3000030F200EE
:10233C000030F1000030F000080001300310FC0CFC
:10234C00FB0CFA0CF90CFF3E031DA4290130F40020
:10235C007408FD070319CE29A32918307D02031C2C
:10236C00CB290030F3000030F2000030F1000030D7
:10237C00F00008000130F4000310F90DFA0DFB0D0C
:10238C00FC0DF40BC2290130FD027D08031DC02990
:10239C0078080319DC29F909FA09FB09FC09F90A7F
:1023AC000319FA0A0319FB0A0319FC0A7C08F30047
:1023BC007B08F2007A08F1007908F000080003109D
:1023CC00A30DA40DA20BE529A309A40908307B07D2
:1023DC00A5007C080318013EA6002508840083177D
:1023EC00261C83130008A700840A0008A8002708ED
:1023FC0084008317281C831323088005840A24086F
:10240C00800518307B07A0007C080318013EA10052
:10241C00200884008317211C8313000AA2000130BA
:10242C00A3000030A4001D2A0310A30DA40DA20BC1
:10243C001A2AA309A4090A307B07A5007C080318F3
:10244C00013EA600250884008317261C8313000870
:10245C00A700840A0008A800270884008317281CFA
:10246C00831323088005840A240880051A307B070F
:10247C00A0007C080318013EA100200884008317EB
:10248C00211C8313000AA2000130A3000030A40019
:10249C00522A0310A30DA40DA20B4F2AA309A409C1
:1024AC000C307B07A5007C080318013EA60025080C
:1024BC0084008317261C83130008A700840A0008D5
:1024CC00A800270884008317281C83132308800581
:1024DC00840A24088005080083120313A101F31F4A
:1024EC00842AF009F109F209F309F00A0319F10A37
:1024FC000319F20A0319F30AA101A10AF71F952A7D
:10250C00F409F509F609F709F40A0319F50A031990
:10251C00F60A0319F70A0130F8007808A106003012
:10252C00A5000030A4000030A3000030A200730806
:10253C007204710470040319EA2AA001A00AF31BA7
:10254C00B52A0130F8000310F00DF10DF20DF30D6A
:10255C00F80BA92A0130F8007808A007A52A013049
:10256C00F8000310A20DA30DA40DA50DF80BB72AAE
:10257C0073087702031DCC2A72087602031DCC2A3D
:10258C0071087502031DCC2A70087402031CDD2A25
:10259C007008F4027108031C710FF5027208031C19
:1025AC00720FF6027308031C730FF702221401302A
:1025BC000310F30CF20CF10CF00CFF3E031DDE2AA1
:1025CC000130A002031DB52A21080319F82AA2091B
:1025DC00A309A409A509A20A0319A30A0319A40AA9
:1025EC000319A50A2508F3002408F2002308F100BA
:1025FC002208F0000800831203132008A60021080B
:10260C00A7002208A8000310270D280DA9002908EF
:10261C00AA002A08031D192B0030A0000030A100CD
:10262C000030A20008002308A6002408A7002508F3
:10263C00A8000310270D280DA9002908AF002F08AA
:10264C00031D2F2B0030A0000030A1000030A20091
:10265C0008002F087B3EA6002608AA072008A60023
:10266C002108A7002208A80010300310A80CA70C02
:10267C00A60CFF3E031D3B2B2608A9002908AF0022
:10268C002308A6002408A7002508A8001030031072
:10269C00A80CA70CA60CFF3E031D4D2B2608A90069
:1026AC002908AF068030A6002608AF05A117A4178D
:1026BC00FF30A305FF30A4050030A5050030AB00AA
:1026CC000030AC000030AD000730A6002608AE008C
:1026DC00201C7E2B2308AB07240803110318240AA3
:1026EC00031DAC07250803110318250A031DAD07AC
:1026FC0001300310A20CA10CA00CFF3E031D7F2B7C
:10270C0001300310A30DA40DA50DFF3E031D872B57
:10271C000130AE02031D6E2B0930A6002608AE0058
:10272C00201CA62B2308AB07240803110318240A2A
:10273C00031DAC07250803110318250A031DAD075B
:10274C0001300310A20CA10CA00CFF3E031DA72B03
:10275C0001300310AD0CAC0CAB0CFF3E031DAF2BCA
:10276C000130AE02031D962B2B08F0002C08F10053
:10277C002D08F2002A08A6002608F3002F08A7004F
:10278C002708F4000A168A15B4267008831203135E
:10279C00A0007108A1007208A20008001930831271
:1027AC000313EE000030EF000A168A15F3250A1603
:1027BC008A11BE3083120313C9004908F00090300F
:1027CC00CA004A08F100A2300A128A1546260A16D7
:1027DC008A11003083120313A9000030A8002530A1
:1027EC00A7008030A6000A168A158C270A168A11B3
:1027FC000A168A150C260A168A11831603138801E9
:10280C0070308F003F3092008B01831203139B01B9
:10281C000C309D00043092000130C9000030871A42
:10282C000130013E1B2C0310C90DFF3E031D192C5A
:10283C004908CA004A08831603138704013083121F
:10284C000313C900003010190130013E2F2C031066
:10285C00C90DFF3E031D2D2C0130CA00003090180D
:10286C000130013E3B2C0310CA0DFF3E031D392CD9
:10287C000130CB00003010180130013E472C031002
:10288C00CB0DFF3E031D452C4B084A044904CC00DC
:10289C004C0890040130C9000030881B0130013E07
:1028AC00592C0310C90DFF3E031D572C4908CA00B3
:1028BC004A0888048F018E01831203130F088316B4
:1028CC000313A100831203130E0883160313A00035
:1028DC00210883120313AA00831603132008831202
:1028EC000313A900A230C9004908AB00BE30CA00CE
:1028FC004A08AC009030CB004B08AD000A168A1188
:10290C0059200A168A11831203136F08BE006E0831
:10291C00BD0083160313210883120313C000831612
:10292C000313200883120313BF000A128A15DD2338
:10293C000A168A11831203133D089B008316031396
:10294C002108F9002008F8000A30FA000030FB00DA
:10295C004D300A168A1520270A168A114D300A1690
:10296C008A1527260A168A110A300A128A1109209A
:10297C000A168A11831203138F018E0107308312FA
:10298C000313CB001730CA006930C900C90BCC2C1B
:10299C00CA0BCC2CCB0BCC2CD32C622C8312031358
:1029AC003008B6003108B7003208B8000310370DF4
:1029BC00380DB9003908BC003308B6003408B7002C
:1029CC003508B8000310370D380DB9003908BB00B5
:1029DC003C080319FD2C3B083C020318042D3C0356
:1029EC00FF3A3B07B60019303602031C042D33089E
:1029FC00B0003408B1003508B20008003B080319D8
:102A0C0008003C083B020318132D3B03FF3A3C071C
:102A1C00B60019303602031808000630B600360826
:102A2C00BA00B21BBA17B51B3A17B117FF30B00575
:102A3C00FF30B1050030B205B417FF30B305FF30DD
:102A4C00B4050030B5053B083C020318532D01308A
:102A5C000310B30DB40DB50DFF3E031D2E2D01302B
:102A6C00BB023B083C0603194E2D0130BA023A0852
:102A7C00073903194E2D2D2D01300310B20CB10C5A
:102A8C00B00CFF3E031D432D0130B6003608BC07C9
:102A9C003C083B0603197C2D422D3C083B020318D5
:102AAC007C2D01300310B00DB10DB20DFF3E031D96
:102ABC00582D0130BC023B083C060319782D01301F
:102ACC00BA023A0807390319782D572D0130031033
:102ADC00B50CB40CB30CFF3E031D6D2D0130B600CC
:102AEC003608BB073C083B06031D6C2DBA1F8E2D08
:102AFC00FF30B006FF30B106FF30B2060130B00730
:102B0C00003003180130B107003003180130B20750
:102B1C003A1FA02DFF30B306FF30B406FF30B506C8
:102B2C000130B307003003180130B407003003182C
:102B3C000130B507BA013008B30731080311031887
:102B4C00310A031DB407320803110318320A031D9E
:102B5C00B507B51FC32DFF30B306FF30B406FF30E9
:102B6C00B5060130B307003003180130B40700304C
:102B7C0003180130B507BA01BA0A3308F00034085B
:102B8C00F1003508F2003C08B6003608F3003A08AC
:102B9C00B7003708F4000A168A15B4267008831299
:102BAC000313B0007108B1007208B20008000E30B7
:102BBC007B0783120313A0007C080318013EA100BD
:102BCC00200884008317211C8313000AA200013003
:102BDC00A3000030A400F52D0310A30DA40DA20B2F
:102BEC00F22D7B08840083177C1C83130008A5003E
:102BFC00840A0008A600250884008317261C83136A
:102C0C0023088004840A2408800410307B07A00069
:102C1C007C080318013EA100200884008317211CA6
:102C2C008313000AA2000130A3000030A400212E5F
:102C3C000310A30DA40DA20B1E2E02307B07A500C2
:102C4C007C080318013EA600250884008317261C67
:102C5C0083130008A700840A0008A8002708840032
:102C6C008317281C831323088004840A24088004F7
:102C7C0012307B07A0007C080318013EA10020083D
:102C8C0084008317211C8313000AA2000130A300C7
:102C9C000030A400542E0310A30DA40DA20B512E32
:102CAC00A309A40904307B07A5007C080318013E86
:102CBC00A600250884008317261C83130008A70090
:102CCC00840A0008A800270884008317281C831393
:102CDC0023088005840A2408800514307B07A00093
:102CEC007C080318013EA100200884008317211CD6
:102CFC008313000AA2000130A3000030A400892E27
:102D0C000310A30DA40DA20B862E06307B07A50085
:102D1C007C080318013EA600250884008317261C96
:102D2C0083130008A700840A0008A8002708840061
:102D3C008317281C831323088004840A2408800426
:102D4C0016307B07A0007C080318013EA100200868
:102D5C0084008317211C8313000AA2000130A300F6
:102D6C000030A400BC2E0310A30DA40DA20BB92E91
:102D7C0008307B07A5007C080318013EA600250837
:102D8C0084008317261C83130008A700840A0008FC
:102D9C00A800270884008317281C831323088004A9
:102DAC00840A2408800418307B07A0007C080318D0
:102DBC00013EA100200884008317211C8313000A04
:102DCC00A2000130A3000030A4000A128A15AE2A1A
:102DDC000A128A11B42F0E307B0783120313A00042
:102DEC007C080318013EA100200884008317211CD5
:102DFC008313000AA2000130A3000030A400092FA5
:102E0C000310A30DA40DA20B062F7B0884008317BF
:102E1C007C1C83130008A500840A0008A600250862
:102E2C0084008317261C831323088004840A240837
:102E3C00800410307B07A0007C080318013EA10021
:102E4C00200884008317211C8313000AA200013080
:102E5C00A3000030A400352F0310A30DA40DA20B6A
:102E6C00322F02307B07A5007C080318013EA60018
:102E7C00250884008317261C83130008A700840AE6
:102E8C000008A800270884008317281C8313230834
:102E9C008004840A2408800412307B07A0007C087C
:102EAC000318013EA100200884008317211C831302
:102EBC00000AA2000130A3000030A400682F031008
:102ECC00A30DA40DA20B652F04307B07A5007C0875
:102EDC000318013EA600250884008317261C8313C3
:102EEC000008A700840A0008A8002708840083179C
:102EFC00281C831323088004840A240880041430BB
:102F0C007B07A0007C080318013EA1002008840068
:102F1C008317211C8313000AA2000130A300003088
:102F2C00A4009B2F0310A30DA40DA20B982F063009
:102F3C007B07A5007C080318013EA6002508840029
:102F4C008317261C83130008A700840A0008A80016
:102F5C00270884008317281C831323088004840A01
:102F6C002408800416307B07A0007C080318013E5F
:102F7C00A100200884008317211C8313000AA200DF
:102F8C000130A3000030A400CE2F0310A30DA40D1C
:102F9C00A20BCB2F08307B07A5007C080318013E41
:102FAC00A600250884008317261C83130008A7009D
:102FBC00840A0008A800270884008317281C8313A0
:102FCC0023088004840A2408800418307B07A0009E
:102FDC007C080318013EA100200884008317211CE3
:102FEC008313000AA2000130A3000030A4000A12CF
:042FFC008A15132DF2
:103BE6004F30831203179C0008309D00E1309E0081
:103BF600900191019201930194019501960197011B
:103C0600980199019A019B01203088009330870022
:103C1600080083160313E101E201DF01E001DD0183
:103C2600DE010030E500C030E6003F30E70000303E
:103C3600EB000030EC003F30ED00CD30E800CC303A
:103C4600E9003D30EA000800F400F201F3017208D1
:103C56007407F10071088400831300080319080033
:103C660072087407F10071088400831300080A12B1
:103C76008A1109200A168A150130F2070318F30A79
:103C86000030F3072A2E700871040319732EF5010C
:103C9600F50AF11B5A2E01300310F00DF10DFF3E0F
:103CA600031D4F2E0130F4007408F5074C2E7108E1
:103CB6007302031D602E70087202031C682E7008C2
:103CC600F2027108031CF303F30201300310F10C36
:103CD600F00CFF3E031D692E0130F502031D5A2E1E
:103CE6007308F1007208F0000800F501F60170088B
:103CF60071040319AF2EF701F70AF11B8E2E01305E
:103D06000310F00DF10DFF3E031D832E0130F4006C
:103D16007408F707802E01300310F50DF60DFF3EEF
:103D2600031D8F2E71087302031D9B2E70087202ED
:103D3600031CA42E7008F2027108031CF303F3029D
:103D4600751401300310F10CF00CFF3E031DA52E77
:103D56000130F702031D8E2E7608F1007508F0007B
:103D6600080073080319BC2E720871047004031D41
:103D7600CF2E0030F0000030F1000030F2000800D5
:103D86000130F5007508F30701300310F20CF10C51
:103D9600F00CFF3E031DC82EFE3072050319EA2EF5
:103DA600C32E0130F5007508F3070130F007003027
:103DB60003180130F107003003180130F207013013
:103DC6000310F20CF10CF00CFF3E031DE32EFF3046
:103DD60072050319F92ED42E0130F30201300310B7
:103DE600F00DF10DF20DFF3E031DF22EF11BFF2E1D
:103DF600023073020318EF2E7318072FFF30F005F9
:103E06007F30F105FF30F2050310F30C7308F5005F
:103E1600F601F70110300310F50DF60DF70DFF3E14
:103E2600031D0E2F7508F0047608F1047708F204D6
:103E3600740803190800F217080083120313A3007D
:103E46007908A1007808A0007B08F1007A08F00044
:103E56002108F3002008F2000A168A1578260A16A9
:103E66008A15710883120313A1007008A00001309F
:103E7600FC007C08A30720082104031D272F230824
:103E86008400831380010130A3027B08F1007A08C5
:103E9600F0007908F3007808F2000A168A1546261B
:103EA6000A168A157008FC007C0883120313A20008
:103EB6007B08F1007A08F0007908F3007808F20030
:103EC6000A168A1578260A168A157108F9007008E6
:103ED600F8000A30831203132202031C762F0730E0
:103EE600FC007C08A2073030FC007C08A2072208F0
:103EF600FC00230884007C08831380000130A302A1
:103F060078087904031D482F0130FC007C08A307BC
:103F16000800831203132608AA002708AB00280806
:103F2600AC002908AD0004300310AA0DAB0DAC0D92
:103F3600AD0DFF3E031D972F2D08F3002C08F20050
:103F46002B08F1002A08F0000030AE001230AF0056
:103F56007A30B0000030B1002608B2002708B3005E
:103F66002808B4002908B50004300310B20DB30DBB
:103F7600B40DB50DFF3E031DB82FB209B309B40940
:103F8600B509B20A0319B30A0319B40A0319B50A23
:103F96003208AE0733080318330FD22FD32FAF07DB
:103FA60034080318340FD82FD92FB0073508031853
:103FB600350AB1073108F7003008F6002F08F5007A
:103FC6002E08F4000A168A1172227108FA00700887
:103FD600F90083160313181579089900181283122D
:103FE60003139817831603138717071783120313F0
:0A3FF600181683160313981608002E
:02400E00F4FFBD
:00000001FF
